:020000040800F2
:10000000500A002035020008B32A00088B2300089C
:10001000B12A0008C5050008CB3600080000000022
:10002000000000000000000000000000B1330008E4
:10003000510600080000000095310008B3330008A5
:100040004F0200084F0200084F0200084F0200084C
:100050004F0200084F0200084F0200084F0200083C
:100060004F0200084F0200084F0200084F0200082C
:100070004F0200084F0200084F0200084F0200081C
:100080004F0200084F020008910400080000000021
:100090000000000000000000000000004F02000807
:1000A0004F0200084F0200084F0200084F020008EC
:1000B0004F0200084F0200084F0200084F020008DC
:1000C0004F0200084F0200084F0200084F020008CC
:1000D0004F0200084F0200084F0200080000000015
:1000E0004F0200084F0200084F0200080000000005
:1000F0000000000000000000000000004F020008A7
:10010000000000004F0200085D3400084F020008A4
:1001100000000000000000000000000000000000DF
:10012000C90500084F0200084F0200084F020008EE
:100130004F02000800000000000000000000000066
:100140000000000000000000000000004F02000856
:100150004F0200084F0200084F0200084F0200083B
:100160004F0200084F0200080000000000000000DD
:10017000000000000000000000000000000000007F
:10018000000000004F020008000000000000000016
:100190004F02000800F002F800F03CF80AA090E8D6
:1001A000000C82448344AAF10107DA4501D100F032
:1001B00031F8AFF2090EBAE80F0013F0010F18BFC3
:1001C000FB1A43F001031847803A0000A03A0000F0
:1001D000103A24BF78C878C1FAD8520724BF30C873
:1001E00030C144BF04680C60704700000023002445
:1001F00000250026103A28BF78C1FBD8520728BF37
:1002000030C148BF0B6070471FB503F004FD1FBD30
:1002100010B510BD00F001F91146FFF7F5FF03F02E
:1002200065FA00F01FF903B4FFF7F2FF03BC00F01A
:1002300027F900000948804709480047FEE7FEE724
:10024000FEE7FEE7FEE7FEE7FEE7FEE7FEE7FEE786
:1002500004480549054A064B704700004D34000824
:100260009501000850040020500A0020500600208C
:100270005006002053EA020C00F069802DE9F04B93
:100280004FF00006002B1FBFB3FA83F503FA05F405
:1002900024FA05F65E4012BF1643B2FA82F502FA5E
:1002A00005F4C5F120051EBF22FA05FC44EA0C0442
:1002B000203556EA044C4FEA144418BF641C4FF032
:1002C00000084FF00009904271EB030C39D300296C
:1002D00019BFB1FA81F701FA07F6B0FA80F700FA10
:1002E00007F6C7F120071EBF20FA07FC46EA0C06F6
:1002F0002037B6FBF4FCA7EB0507103F07F01F0BF8
:10030000CBF120060CFA0BFB2CFA06F644BFB346E1
:100310000026202FA4BF5E464FF0000B5BEA060CC0
:1003200008BF4FF0010B19EB0B09ABFB027C48EB4C
:100330000608C01B06FB02CC0BFB03CC71EB0C01C7
:10034000C1E70B46024641464846BDE8F08B13B56F
:100350004FF000004FF00001AFF30080BDE81C40FB
:10036000704710B5203AC0F00B80B1E81850203A21
:10037000A0E81850B1E81850A0E81850BFF4F5AF45
:100380005FEA027C24BFB1E81850A0E8185044BFCF
:1003900018C918C0BDE810405FEA827C24BF51F83C
:1003A000043B40F8043B08BF7047D20728BF31F830
:1003B000023B48BF11F8012B28BF20F8023B48BF81
:1003C00000F8012B70474FF0000200B51346944629
:1003D0009646203922BFA0E80C50A0E80C50B1F19D
:1003E0002001BFF4F7AF090728BFA0E80C5048BFB1
:1003F0000CC05DF804EB890028BF40F8042B08BF4F
:10040000704748BF20F8022B11F0804F18BF00F84A
:10041000012B7047704770477047754600F02CF805
:10042000AE4605006946534620F00700854618B0E1
:1004300020B5FFF70DFFBDE820404FF000064FF05C
:1004400000074FF000084FF0000B21F00701AC4609
:10045000ACE8C009ACE8C009ACE8C009ACE8C00928
:100460008D46704710B50446AFF300802046BDE8C6
:100470001040FFF7D8BE000000487047EC03002092
:1004800001491820ABBEFEE72600020070470000BD
:10049000014800F095B9000084010020464910B5DC
:1004A0004A6822F440324A604A6843681A434A6004
:1004B00001684A6822F480724A6001684A680369E8
:1004C00042EA03224A6001684A6822F040724A60A8
:1004D00001684A6883681A434A6001688A6822F49E
:1004E00000628A6001688A68C3681A438A60816A08
:1004F0006FF07062D14201688A6822F070628A608F
:1005000001688A680CD0836A1A438A6001688A6825
:1005100022F040528A6001688A68C36A1A4301E087
:1005200022F040528A6001688A6822F002028A60E2
:1005300001688A68037E42EA43028A6090F82010CC
:10054000002901684A680FD042F400624A600168DD
:100550004A6822F460424A6001684A68174C436A5C
:1005600004EB43331A4301E022F400624A6001685D
:10057000CA6A22F47002CA620168CA6A838B104C8C
:1005800004EB03531A43CA6201688A6822F40072BA
:100590008A6001688A6890F8303042EA43228A60B3
:1005A00001688A6822F480628A6001688A6840690A
:1005B00042EA8020886010BD0023014000E0FFFF78
:1005C0000000F0FFFEE70000014800F00FBA000055
:1005D000CC01002001681823CAB2103AB2FBF3F232
:1005E000054B6FF30901032A9B5CC36500D9091D04
:1005F00081650846704700002D3C000810B5014693
:1006000000208B698A6A4FF0C07453B1B3F5005F64
:1006100015D072B1012A0CD0022A0AD0032A09D1BE
:1006200004E01AB1012A06D0022A03D1C96AC9011D
:1006300000D5012010BDC96AA142FAD010BD002A20
:10064000F7D0012AF2D0022AF3D0032AF3D010BD4A
:10065000704701680968496A41600846704701604F
:10066000002141608160C160704772B6FEE770474B
:1006700078B50024009490F83C20012A19D001227A
:1006800080F83C200A6807230568092A13D9EE6818
:100690000A3A02EB420293409E43EE600B788A686E
:1006A0000A3B03EB43039A400368DD682A43DA60A0
:1006B00010E0022078BD2E6902EB420293409E4377
:1006C0002E610B788A6803EB43039A4003681D6927
:1006D0002A431A614A681F23072A13D205686E6BE2
:1006E000521E02EB820293409E436E630B790A888E
:1006F0005B1E92B203EB83039A4003685D6B2A434F
:100700005A6327E005680D2A12D22E6BD21F02EB26
:10071000820293409E432E630B790A88DB1F92B2BC
:1007200003EB83039A4003681D6B2A431A6311E0AD
:10073000EE6A0D3A02EB820293409E43EE620B7921
:100740000A880D3B92B203EB83039A400368DD6A8B
:100750002A43DA62164B0568144A9D4206D10D6899
:10076000122D03D1556845F48005556005689D42FA
:1007700018D10B68102B01D0112B13D1536843F4FF
:1007800000035360096810290CD10A490A4A096814
:10079000B1FBF2F101EB8101490000E0491E00913B
:1007A0000029FBD180F83C40002078BD00230140A7
:1007B000002001404400002040420F007047704775
:1007C00070B5044600680668456816F0020F05F02B
:1007D00020012AD049B3216CC90603D4216C41F40D
:1007E00000712164816811F0405F17D1217EA9B9A1
:1007F000C16A11F4700F02D0816849050ED44168B6
:1008000021F020014160206C20F480702064206C75
:10081000C00403D4206C40F0010020642046FFF7A0
:10082000CDFF21686FF01200086016F0040F05F08C
:10083000800132D089B3206CC00603D4206C40F410
:10084000005020642068816811F4401F1ED1816B24
:1008500011F4401F02D08168490517D44168490549
:1008600014D4816811F0405F10D1217E71B94168C4
:1008700021F080014160206C20F480502064206CC5
:10088000C00503D4206C40F0010020642046FFF72F
:10089000EEFE21686FF00C00086016F0010F05F005
:1008A00040010FD071B120680068C0070AD0206CE9
:1008B00040F480302064204600F043F821686FF057
:1008C0000100086016F0200F05F080610ED00029AD
:1008D0000CD0606C40F00200606420686FF020056E
:1008E00005602046FFF76BFF2068056070BD70B59E
:1008F00004004FF0000503D0206C002610B107E083
:10090000012070BD204600F01DF8666484F83C604C
:10091000206CC00610D4206C20F4885040F00200F7
:1009200020642046FFF7BAFD6664206C20F00200C8
:1009300040F00100206400E0012584F83C60284676
:1009400070BD704770B586B0064614216846FFF743
:100950003AFD2149306888423CD120480025016891
:1009600041F480710160006800F4807005901B48BC
:100970001438016841F0010101600068694600F027
:1009800001000590382000900320CDE901051448AE
:1009900000F078F9144C1348C4E900050015A5606F
:1009A000C4E90350800060618000A0618011C4E947
:1009B00007052046656200F0E9F808B1FFF755FE2B
:1009C000B463002211461220A66300F0C7FA122079
:1009D00000F0B6FA06B070BD002001404438024075
:1009E0000000024010640240CC0100202DE9F843D1
:1009F00004464FF00009CDF8009063484FF41651BB
:100A0000A56D0068B0FBF1F72E6894F85C10082023
:100A100000FA01F131420FD021680A6852070BD564
:100A20000A6822F004020A6094F85C108840A8600A
:100A3000606D40F00100606594F85C104FF00108B3
:100A400008FA01F0304208D021684969090604D546
:100A5000A860606D40F00200606594F85C100420AE
:100A60008840304208D021680968890704D5A86009
:100A7000606D40F00400606594F85C1010208840C0
:100A8000304218D021680968090714D5A860206889
:100A90000168490304D50068000308D5A16C07E08C
:100AA0000168C90503D4016821F008010160216CC7
:100AB00009B12046884794F85C10202088403042D5
:100AC00031D021680968C9062DD5A86094F8350091
:100AD00005282068016806D0490347D5006800034F
:100AE0001DD4616C1CE021F0160101602068416991
:100AF00021F080014161206C08B9A06C20B1206810
:100B0000016821F00801016094F85C103F208840E2
:100B1000A86084F8358084F83490216D1FE0E16B83
:100B200009B120468847606D00282BD0606DC00752
:100B300014D0052084F835002068016821F00101F7
:100B400001600098401C0090B84203D820680068FB
:100B5000C007F6D184F8358084F83490E16C002920
:100B600010D001B02046BDE8F04308470168C90530
:100B7000D5D4016821F01001016084F8358084F833
:100B80003490CCE7BDE8F883440000202DE9F04123
:100B9000044600F075F906465CB1022084F8350081
:100BA000002584F834502068016821F001010160BB
:100BB0000DE00120BDE8F08100F062F9801B0528FE
:100BC00005D920206065032084F83500F2E720680D
:100BD0000068C007F0D12268116820480140D4E9BC
:100BE00001031843D4E903363343184363691843B8
:100BF000A3691843E3691843236A18430843616AE9
:100C0000042903D1D4E90B13194308431060206869
:100C10004069666A20F0070130460E430127042828
:100C20000CD1A06A0643E06A40B12046FFF7E6FC1B
:100C300020B14020606584F83570BAE720684661CD
:100C40002046FFF7C7FC94F85C203F21914081606B
:100C5000656584F835700020ACE700003F8010F037
:100C600070B5044600F00CF90546601C02D004483B
:100C70000078044400F004F9401BA042FAD370BD90
:100C8000380000202DE9F84FDFF8B8A10022012438
:100C900003254FF00F090AF1040BAAF1040E00BF5F
:100CA0000B6804FA02F63340B34273D10F7907F0B0
:100CB0000307012F01D0022F16D187684FEA42089F
:100CC00005FA08FC27EA0C07D1F80CC00CFA08FC5E
:100CD0004CEA070CC0F808C04768B7430E79C6F362
:100CE000001696403E4346600E79F643B6070DD097
:100CF000C768560005FA06FC27EA0C07D1F808C0B9
:100D00000CFA06FC4CEA070CC0F80CC00E7906F091
:100D10000306022E10D1D60800EB8608D8F8206012
:100D200057074FEAD76C09FA0CF7BE430F6907FA69
:100D30000CF73743C8F8207006684FEA420C05FAF2
:100D40000CF7BE430F7907F0030707FA0CF7374398
:100D500007604E6816F4403F6DD03B4E376847F44D
:100D600080473760366822F0030706F48046009615
:100D7000364E07EB060CDCF8086897073F0F09FAB8
:100D800007F826EA0806DFF8C880404503D14FF08F
:100D900000081EE04FE0DFF8BC80404502D14FF074
:100DA000010816E0DFF8B080404502D14FF002089C
:100DB0000FE0DFF8A880404502D14FF0030808E0BB
:100DC000DFF89C80404502D14FF0040801E04FF06D
:100DD000070808FA07F848EA0608CCF80888DAF89D
:100DE00000605746D1F804C09E435FEACC2C00D582
:100DF0001E433E60DBF800605F46D1F804C09E43AE
:100E00005FEA8C2C00D51E433E60DEF8006077461A
:100E1000D1F804C09E435FEA8C3C00D51E433E607F
:100E2000084F083F3E68D1F804C09E435FEACC3CBF
:100E300000D51E433E60521C102AFFF431AFBDE8BE
:100E4000F88F0000083C0140443802400030014067
:100E5000000002400004024000080240000C024072
:100E600000100240426921EA02030A4043EA0241BB
:100E7000816170470AB1816170470904FBE7000096
:100E800001488068704700003800002002488168EF
:100E90000278114481607047380000200B4810B57B
:100EA000016841F400710160016841F480610160F2
:100EB000016841F480710160032000F06FF80020A8
:100EC00000F006F800F024F8002010BD003C0240BD
:100ED00070B50D4D04464FF47A712878B1FBF0F0EF
:100EE0000A490968B1FBF0F000F0CFFD48B9102CB9
:100EF00007D200222146501E00F030F800206C601E
:100F000070BD012070BD00003800002044000020AA
:100F10000A4808B5016841F480410160006800F4A6
:100F2000804000900548001F016841F08051016039
:100F3000006800F08050009008BD00004438024076
:100F4000002809DB00F01F020121914040098000C8
:100F500000F1E020C0F8001170470000F0B40E4B23
:100F60001B680C46C3F30223C3F10705042D00D907
:100F70000425191D072901D2002300E0DB1E0126EC
:100F800006FA05F1491E214099409E40761E164002
:100F90003143F0BC02F09ABB0CED00E0064900F0D2
:100FA000070208684FF6FF03184040EA0220034A90
:100FB00010430860704700000CED00E00000FA05E7
:100FC0002DE9F0470E46050065D0DFF81481D8F80A
:100FD0000000F7B200F00700B04207D288F80070B6
:100FE000D8F8000000F00700B04254D128683D4C0A
:100FF000810712D5400703D5206840F4E0502060F7
:101000002878000703D5206840F4604020602068FD
:10101000A96820F0F000084320602878C0072DD090
:10102000304968680839012812D0022813D00328F3
:1010300011D00968890700292DDA216821F0030100
:1010400001432160FFF71CFF814641F2883A0EE020
:1010500009688903EFE709688901ECE7FFF710FFEA
:10106000A0EB0901514502D90320BDE8F0872068B3
:10107000696800F00C00B0EB810FEFD1D8F80010D8
:10108000404601F00701B14207D90770006800F03F
:101090000700B04201D00120E7E72878400705D5D6
:1010A0002068E96820F4E0500843206028780007B1
:1010B00006D52068296920F4604040EAC10020601C
:1010C00000F018F82168084AC1F30311515CC840C8
:1010D0000649086006480068FFF7FAFE0020C4E7EA
:1010E000003C024008380240353C00084400002023
:1010F0003C000020154810B5006810F00C021448A0
:1011000013D01449042A0FD0082A0ED10F4C241FE3
:101110002268236802F03F025B0207D52068C0F313
:101120008810A0FB010106E0084610BD2168C1F34C
:101130008811A1FB00010023FFF79CF82168C1F38F
:101140000141491C4900B0FBF1F010BD08380240D4
:101150000024F40040787D012DE9F84F04006ED0A2
:101160002078DFF84C93C007A9F104054AD009F1B3
:1011700004000168C1F38101012908D00068C0F3AF
:10118000810002280AD1D9F80000400206D528685B
:10119000800337D560680028E1D033E06068B0F59F
:1011A000803F10D0B0F5A02F286810D020F48030F8
:1011B0002860286820F4802028606068A8B1FFF7C4
:1011C0005FFE06460DE0286840F48030F4E740F406
:1011D00080202860F7E700BFFFF752FE801B6428DD
:1011E00073D828688003F7D50CE0FFF749FE064660
:1011F00005E000BFFFF744FE801B6428F0D8286894
:101200008003F7D42078DFF8AC8280074FF0000A23
:101210003ED5A748001D016811F00C0F08D00068EA
:10122000C0F3810002280BD1D9F80000400207D496
:101230002868800716D5E068012800D112E033E164
:10124000E068B8B10120C8F80000FFF719FE0646B3
:1012500005E000BFFFF714FE801B0228C0D82868F5
:101260008007F7D52868216920F0F80040EAC1001E
:1012700028600DE0C8F800A0FFF702FE064604E073
:10128000FFF7FEFD801B02281FD828688007F7D4CF
:101290002078000722D5864F87486169703771B181
:1012A00001210160FFF7ECFD064604E0FFF7E8FDD1
:1012B000801B022809D838688007F7D50EE0C0F8EF
:1012C00000A0FFF7DDFD064605E082E0FFF7D8FD50
:1012D000801B02287DD838688007F7D42078400723
:1012E00068D5DFF8CCB100270BF13C0BDBF8000030
:1012F000C0000BD4DBF8001041F08051CBF8001097
:10130000DBF80000012700F0805000906B4E306841
:10131000C00510D4306840F480703060FFF7B0FD35
:10132000009005E0FFF7ACFD0099401A022850D864
:101330003068C005F6D55E4EA0686C3601280FD027
:101340000528306810D020F001003060306820F0AF
:1013500004003060A068B8B1FFF792FD00900FE084
:10136000306840F00100F4E740F004003060F7E737
:10137000FFF786FD0099411A41F28830814266D814
:1013800030688007F4D50EE0FFF77AFD009007E0A3
:10139000FFF776FD0099411A41F28830814256D814
:1013A00030688007F4D42FB1DBF8001021F08051B1
:1013B000CBF80010A069C8B33D49091D0968C1F305
:1013C000810102294AD00228504607D0C8F860009F
:1013D00000E03CE0FFF754FD04463BE04746C8F818
:1013E0006000FFF74DFD064605E000BFFFF748FD32
:1013F000801B02282BD828688001F7D4D4E9070184
:101400000843A16A2E4A490802EB0141626A41EA97
:101410008211084394F82C1040EA0161C9F80010C9
:1014200001203866FFF72CFD044606E03EE000BFD1
:10143000FFF726FD001B022809D828688001F7D590
:1014400034E000BFFFF71CFD001B022802D9032077
:10145000BDE8F88F28688001F4D427E00128F7D090
:10146000D9F80000E26900F4800191421CD1226A9F
:1014700000F03F01914217D147F6C071626A014006
:10148000B1EB821F10D1A26A4FF0FF3300F440315C
:1014900003EB5202B1EB024F06D194F82C1000F08E
:1014A0007060B0EB016F01D00120D1E70020CFE7E1
:1014B0000438024000004742800E4742007000405E
:1014C0000000FFFF70B5040009D0606A002540B13C
:1014D00025616561A56294F8510040B10CE00120DE
:1014E00070BD6068B0F5827FF4D0E561F2E784F802
:1014F0005050204600F044F8022084F85100206843
:10150000016821F040010160A088218900F4827007
:1015100001F404410843A18901F400610843217CDE
:1015200001F002010843217D01F001010843218BF4
:1015300001F400710843217F01F03801084394F859
:10154000201001F080010843218D01F4005108436F
:1015500021680860A069042101EA104094F8241071
:1015600001F010010843216848602068C16921F436
:101570000061C1616565012084F85100002070BDE3
:1015800010B586B0044614216846FEF71CFF1349C7
:101590002068884220D112480021026842F40042AB
:1015A0000260006800F4004005900D4810380268A1
:1015B00042F002020260006800F00200059038204C
:1015C00000900220CDE90101032003900620049041
:1015D00069460448FFF756FB06B010BD003C0040CA
:1015E00040380240000402402DE9F84F04464068AC
:1015F0000025984616460F464FF0040BB0F5827F43
:1016000001D1A06888B194F85000012818D00120B9
:1016100084F85000FFF734FC814694F851004FF0F5
:10162000000A01280ED0022582E084F851B013464A
:101630000A462046CDF8008000F036F9BDE8F88F64
:101640000220FBE7002F72D0002E70D084F851B03A
:10165000C4F854A0A763A687E687C4F830A0A4F80E
:1016600034A0A4F836A0C4F840A0C4F844A0A068F0
:10167000B0F5004F09D12068016821F040010160F8
:101680002068016821F480410160206801684906F2
:1016900003D4016841F040010160E068D8B139E04D
:1016A00020688168C90709D0007BA16B0870A06B16
:1016B000401CA063E08F401EE0870CE0FFF7E0FBDA
:1016C000A0EB0901414503D3B8F1FF3F03D036E059
:1016D000B8F1000F33D0E08F0028E1D11DE0206881
:1016E0008168C90709D0C068A16B0880A06B801C05
:1016F000A063E08F401EE0870CE0FFF7C1FBA0EB8A
:101700000901414503D3B8F1FF3F03D017E0B8F119
:10171000000F14D0E08F0028E1D14A464146204610
:1017200001F090FD08B120206065606D00B10125D9
:10173000012084F8510084F850A028467EE7032554
:10174000F6E72DE9F84F044690F8500000271D46B3
:101750001646894601280DD04FF0010B84F850B091
:10176000FFF78EFB804694F85100BA46012804D05A
:10177000022793E00220BDE8F88FB9F1000F73D083
:10178000002E71D0032084F85100C4F854A0C4F88E
:101790003090A686E686C4F838A0A4F83CA0A4F849
:1017A0003EA0C4F844A0C4F840A0A068B0F5004F23
:1017B00009D12068016821F04001016020680168BA
:1017C00041F48041016020680168490603D4016842
:1017D00041F040010160E068B0F5006F606803D03F
:1017E00030B3012E24D041E008B1012E1CD1206B72
:1017F00021680088C86006E020688168890709D5EB
:10180000216B0988C160206B801C2063E08E401E24
:10181000E08609E0FFF734FBA0EB0800A84202D302
:10182000681C01D031E07DB3E08E0028E4D120E0D7
:10183000206B21680078087306E0206881688907BA
:1018400009D5216B09780173206B401C2063E08E61
:10185000401EE0860AE0FFF713FBA0EB0800A84259
:1018600003D3681C02D010E017E06DB1E08E0028B1
:10187000E3D142462946204601F012FD08B120205E
:101880006065A06818B106E0FFE7032706E020685E
:10189000C16880680090606D00B1012784F851B084
:1018A00084F850A0384666E72DE9F84F044690F8D2
:1018B000500000270A9E1D4692468B464FF00109B4
:1018C00001280ED0012084F85000FFF7D9FA804695
:1018D00094F85100616801280CD0B1F5827F07D1DE
:1018E00002E00220BDE8F88FA16809B9042801D000
:1018F0000227C2E0BBF1000F27D0BAF1000F24D0BD
:101900001DB394F85100042802D0052084F851003A
:1019100000206065C4F838A0E587A587C4F830B01A
:10192000E586A5862064606420680168490603D4C2
:10193000016841F040010160E068B0F5006F606847
:1019400005D0E8B3012D46D07FE0012795E008B12E
:10195000012D39D1206B21680088C860206B801C64
:101960002063E08E401EE0862EE0206881688907B3
:101970000FD5E18E69B1B9F1010F0AD1216B098848
:10198000C160206B801C2063E08E401EE0864FF01B
:10199000000920688168C9070CD0E18F51B1C06887
:1019A000A16B0880A06B801CA063E08F401EE087C5
:1019B0004FF00109FFF764FAA0EB0800B04200E025
:1019C00009E001D3701C50D1E08E0028CDD1E08F0A
:1019D0000028CAD13FE0206B216800780873206B93
:1019E000401C2063E08E401EE0862EE02068816867
:1019F00089070FD5E18E69B1B9F1010F0AD1216BC9
:101A000009780173206B401C2063E08E401EE08645
:101A10004FF0000920688168C9070CD0E18F51B1EF
:101A2000C068A16B0870A06B401CA063E08F401ED3
:101A3000E0874FF00109FFF723FAA0EB0800B0425E
:101A400002D3701C01D010E07EB1E08E0028CDD111
:101A5000E08F0028CAD142463146204601F020FCE2
:101A600028B101272020606507E0032705E0A06872
:101A700018B92068C16880680090012084F851007E
:101A8000002084F8500038462CE710B5401EB0F115
:101A9000807F01D3012010BD4FF0E02460610F2151
:101AA000601701F013FE0020A061072020610020D4
:101AB00010BD7047704710B590F83C20012A22D025
:101AC000012280F83C20CA688C6822F440722243CC
:101AD0004C6822F4806222430C6822F400622243A4
:101AE0000C6922F4805222434C6922F400522243B2
:101AF000C969002322F480420A4301684A6480F8DD
:101B00003C30002010BD022010BD000070B590F8E0
:101B10003C20012A2CD0012480F83C40022280F88D
:101B20003D2003685A689D6822F070060A683243B7
:101B30005A60104B02689A420ED0B2F1804F0BD01F
:101B40000D4B9A4208D00D4B9A4205D00C4B9A424D
:101B500002D00C4B9A4204D1496825F08003194306
:101B6000916080F83D40002180F83C10084670BD2F
:101B7000022070BD00000140000400400008004049
:101B8000000C00400040014010B5040003D094F860
:101B90003D0010B107E0012010BD002084F83C009A
:101BA000204600F01FF8022084F83D00211D206827
:101BB00001F05AFC012084F8460084F83E0084F8C5
:101BC0003F0084F8400084F8410084F8420084F823
:101BD000430084F8440084F8450084F83D00002068
:101BE00010BD000008B501681348814201D11348B7
:101BF00019E01248001FB1F1804F14D0104A9142F1
:101C000019D1016841F0080101600068002200F06C
:101C10000800009011463220FFF7A0F9BDE8084007
:101C20003220FFF78DB9016841F0010101600068C1
:101C300000F00100009008BD00000140443802405F
:101C4000000C004090F83D10012901D001207047A0
:101C5000022180F83D100168CA6842F00102CA60A2
:101C600000680E4988420ED0B0F1804F0BD00C496D
:101C7000884208D00B49884205D00B49884202D0DF
:101C80000A49884204D1816801F00701062903D07E
:101C9000016841F00101016000207047000001402F
:101CA0000004004000080040000C004000400140DB
:101CB00070B5044690F83C000025012817D0012695
:101CC00084F83C60022084F83D002068826822F09D
:101CD000770222F47F4282600868502838D00DDCF9
:101CE00020284FD005DC90B3102811D14AE0022003
:101CF00070BD302846D040280AD13BE060282FD064
:101D000070280DD0B0F5805F03D0B0F5005F12D021
:101D1000012584F83D60002084F83C00284670BD11
:101D2000CB68D1E90121206801F0F7FB20688168C8
:101D300041F0770109E0CB68D1E90121206801F089
:101D4000ECFB2068816841F480418160E1E719E0A3
:101D5000CA684968206801F095FC5021206806E0B7
:101D6000CA684968206801F09EFC6021206801F083
:101D7000DEFBCEE7CA684968206801F083FC402199
:101D80002068F4E7226801461046F0E72DE9F041AB
:101D90000D46040003D094F83D0018B108E001207E
:101DA000BDE8F081002084F83C00204600F040F8B7
:101DB000022084F83D002068816844F207029143C4
:101DC0008160211D206801F04FFB226890689169B5
:101DD000166A2B68AF69034340F20330814341EA3E
:101DE0000721A868EF6908434FF6FC418843E9687A
:101DF00040EA0720014328692F6A000140EA0730C2
:101E0000084369686D6926F0AA0646EA0515294364
:101E100093602268906154F8460B0162012004F837
:101E20001F09E0752076E0762077A0750020B7E7DF
:101E300070B586B0044614216846FEF7C4FA2148FE
:101E40001F4E256800221F491038C0240223B542C6
:101E500017D10D6845F002050D60096801F0020117
:101E60000591016841F00101016000680094CDE92D
:101E7000013200F00100CDE90430694603921248B6
:101E800019E0124EB54218D10D6845F004050D60F9
:101E9000096801F004010591016841F00201016047
:101EA00000680094CDE9013200F00200CDE9043071
:101EB000694603920648FEF7E5FE06B070BD0000D5
:101EC000000400404038024000000240000800408A
:101ED0000004024070B590F83E60044690F83F5010
:101EE00090F8423090F84320022021B104290ED00E
:101EF000012E1BD114E0012E18D1012B16D184F82C
:101F00003E0084F8420001220021206820E0012DDB
:101F10000CD1012A0AD184F83F0084F8430014E070
:101F2000012D03D1012B01D1012A01D0012070BD67
:101F300084F83E0084F83F0084F8420084F84300AF
:101F400001220021206801F0DBFA0122042120682F
:101F500001F0D6FA2068016841F00101016000201B
:101F600070BD704770B50446006801694FF0000508
:101F7000C943890715D4C168C943890711D4E91E2B
:101F8000016101202077206880698007204602D007
:101F9000FFF7E7FF04E000F0D3F8204600F065F912
:101FA000257720680169C943490717D4C168C94327
:101FB000490713D46FF004010161022020772068E3
:101FC000806910F4407F204602D0FFF7CAFF04E08A
:101FD00000F0B6F8204600F048F92577206801693E
:101FE000C943090716D4C168C943090712D46FF061
:101FF00008010161042020772068C069800720461D
:1020000002D0FFF7AEFF04E000F09AF8204600F09F
:102010002CF9257720680169C943C90617D4C1681E
:10202000C943C90613D46FF010010161082020775D
:102030002068C06910F4407F204602D0FFF791FF6E
:1020400004E000F07DF8204600F00FF925772068C5
:102050000169C943C90708D1C168C943C90704D187
:10206000891E0161204600F059F920680169C943C1
:10207000090609D4C168C943090605D46FF0800177
:1020800001612046FFF715FD20680169C943490633
:1020900009D4C168C943490605D46FF04001016104
:1020A000204600F071F920680169C94389060BD404
:1020B000C168C943890607D46FF020010161204639
:1020C000BDE87040FFF7F6BC70BD000070B586B08B
:1020D000044614216846FEF776F9164E256800235B
:1020E0001549022201241548B5420ED10D6845F06C
:1020F00001050D60096801F00101059181158DE868
:102100000E00CDE90334694610E0B5F1804F0FD1E0
:102110000D6845F001050D6009680092CDE90123C5
:1021200001F00101CDE9044103936946FEF7AAFDE0
:1021300006B070BD0000014030380240000002408F
:10214000704770B5044690F83C0000260D46012803
:102150000FD0012084F83C006AB1042A1DD0082A5F
:102160002FD00C2A3FD00126002084F83C003046B6
:1021700070BD022070BD206801F0E2F9206881691D
:1021800041F0080181612068816921F004018161C9
:10219000206881692A69114311E0206801F0F8F98B
:1021A0002068816941F4006181612068816921F4BE
:1021B00080618161206881692A6941EA0221816127
:1021C000D2E7206801F010FA2068C16941F00801E7
:1021D000C1612068C16921F00401C1612068C16941
:1021E0002A69114311E0206801F02AFA2068C169C8
:1021F00041F40061C1612068C16921F48061C1615D
:102200002068C1692A6941EA0221C161ACE710B5C1
:10221000040003D094F83D0010B107E0012010BD88
:10222000002084F83C00204600F01EF8022084F8CC
:102230003D00211D206801F017F9012084F84600B7
:1022400084F83E0084F83F0084F8400084F84100A0
:1022500084F8420084F8430084F8440084F8450080
:1022600084F83D00002010BD7047704710B504464B
:10227000022249B104290ED0082913D094F8410054
:10228000012816D0012010BD94F83E000128F9D194
:1022900084F83E200FE094F83F000128F2D184F842
:1022A0003F2008E094F840000128EBD184F840205A
:1022B00001E084F841200122206801F021F912494F
:1022C0002068884203D1426C42F400424264206894
:1022D00088420ED0B0F1804F0BD00C49884208D014
:1022E0000B49884205D00B49884202D00A498842EE
:1022F00004D1816801F00701062903D0016841F08B
:1023000001010160002010BD0000014000040040F8
:1023100000080040000C00400040014010B5194C7E
:10232000E06800F03DF9206900F03AF9204600F03D
:102330003FFFE06800F097F8206900F094F8E0684B
:10234000C06900F0B5FE2069C06900F0B1FEA06868
:1023500000780128E0680ED000F062F8206900F0F3
:102360005FF8E068C06900F003FF2069C069BDE85C
:10237000104000F0FDBE00F081F82069BDE810407B
:1023800000F07CB8700100207047FEE710B5FEF742
:1023900077FD074C2168401AFA2807D34FF4005103
:1023A0000448FEF75FFDFEF76BFD206010BD0000E6
:1023B0001800002000080240F0B50DF1140E9FED4A
:1023C0000A0A9EE8F01001608280836084810561C2
:1023D0008682C0E9067C80ED080A80ED090A80ED5E
:1023E0000A0A80ED0B0AF0BD0000000010EE101A82
:1023F000074B084A994202DD9FED070A05E010EEFF
:10240000101A914201D99FED050A80ED080A704724
:102410000000B4420000B4C20000B4420000B4C2E4
:1024200010B50446818980680122FEF723FDA18A48
:1024300001222069FEF71EFDA08840B104280BD0C0
:1024400008282068C16800680BD0016410BD2068AE
:10245000C1680068416310BD2068C168006881637D
:1024600010BDC16310BDC16990ED080A81ED000A7D
:1024700090ED0B0AC06980ED010A704710B5044663
:102480002DED028BC069424A406A9FED428BA189C3
:10249000A368904248DD00221846FEF7EBFCA18AB3
:1024A000012220694AE0E06990ED090AB0EEC00A15
:1024B00010EE100A01F03EFB53EC182B01F03CFA31
:1024C00001F00CFA80B256E0042812D00828E06926
:1024D00090ED090AB0EEC00A10EE100A1AD001F011
:1024E00029FB53EC182B01F027FA01F0F7F980B221
:1024F0003BE0E06990ED090AB0EEC00A10EE100A68
:1025000001F018FB53EC182B01F016FA01F0E6F974
:1025100080B234E001F00EFB53EC182B01F00CFA02
:1025200001F0DCF980B22EE01C4A90420CD9012265
:102530001846FEF79FFCA18A00222069FEF79AFC4C
:10254000A0880028C0D1AEE700221846FEF792FC12
:10255000A18A00222069FEF78DFCA1884FF47A70D1
:1025600049B104290BD008290DD0216809680864F5
:10257000BDEC028B10BD216809684863F8E721684B
:1025800009688863F4E721680968C863F0E7000018
:102590000AD7233C0000000000388F400AD723BC34
:1025A00010B50446806941688160A069FEF751F862
:1025B000A1694860A1698A68801AC860A169B0F5FC
:1025C000004F02DDA0F58030C860A169C86810F531
:1025D000004F03DA4042C0F58030C860A0699FED2B
:1025E000121A90ED030AF8EEC00A80EE810ADFEDC0
:1025F0000F0A9FED0F1A60EE200A80EE810A9FED10
:102600000D1A84ED090AD4ED0B0AD4ED0A1A60EE16
:10261000810A9FED091A40EE010A41EE810AC4EDDC
:102620000B0A84ED0A0A10BD0AD7233C0000704251
:102630000000F044BE9F5A3F2B18953D7FB5002106
:1026400020480091019102911D4A039102600124EA
:102650004FF480320461C0E90121047680F8201033
:10266000194AC0E90A210325C561C16080F83040DC
:102670004161FEF73CF908B1FDF7F7FF0620009530
:10268000CDE9014069460F48FDF7F2FF08B1FDF7BB
:10269000ECFF042000900220019069460948FDF7F4
:1026A000E7FF08B1FDF7E1FF0520CDE90005694628
:1026B0000448FDF7DDFF002801D0FDF7D6FF7FBD00
:1026C00000200140840100200100000F094808B5E6
:1026D000016841F4800101600068002200F480007C
:1026E000009011463820FEF739FCBDE8084038203C
:1026F000FEF726BC303802402DE9F04786B01421A1
:102700006846FDF760FE2C480024016841F0040192
:102710000160016801F004010591016841F0800148
:102720000160016801F080010591016841F001013B
:102730000160016801F001010591016841F00201A9
:1027400001600068DFF8748000F002004FF400556B
:102750000590002229464046FEF78CFBDFF860908A
:102760004FF47046002231464846FEF783FBDFF8FF
:1027700054A04FF41047002239465046FEF77AFB2A
:1027800000950125CDE90154694640460394FEF7C2
:1027900079FA0096CDE90154694648460394FEF75C
:1027A00071FA0097CDE90154694650460394FEF74B
:1027B00069FA06B0BDE8F0873038024000080240F0
:1027C0000004024000000240104810B50E490160AC
:1027D0004FF48271416000218160C1604FF400724A
:1027E0000161C0E905121022C0E90721416281623E
:1027F0000A21C162FEF766FE002803D0BDE8104042
:10280000FDF733BF10BD0000003C00402C0200204B
:1028100010B596B000240F94109411941294139450
:102820001C2108A81494FDF7CEFD20216846FDF771
:10283000CAFD2848264901600321C0E9011440F27D
:10284000E731C0E9031444618461FFF79DF908B1E1
:10285000FDF70BFF4FF480500F900FA91D48FFF7B5
:1028600027FA08B1FDF701FF1A48FFF7D0FC08B1BD
:10287000FDF7FBFE139413A916481494FFF746F9CD
:1028800008B1FDF7F2FE6020CDE908040A940B942C
:102890000C940D94002208A90E480E94FFF751FCE9
:1028A00008B1FDF7E2FE00944FF40050CDE904407A
:1028B000029401940394694606480794FFF7FBF8D5
:1028C00008B1FDF7D2FE0348FFF700FC16B010BDBB
:1028D000000001408402002010B58EB0002407944F
:1028E000089409940A940B941C2168460C94FDF7F3
:1028F0006AFD1E484FF0804101600121C0E90114CA
:1029000040F2E731C0E903148461FFF73DF908B1F3
:10291000FDF7ABFE4FF48050079007A91348FFF76F
:10292000C7F908B1FDF7A1FE1048FFF770FC08B128
:10293000FDF79BFE0B940BA90C480C94FFF7E6F8EF
:1029400008B1FDF792FE6020CDE900040294042254
:10295000694606480494FFF7F4FB08B1FDF785FECD
:102960000248FFF7B3FB0EB010BD0000CC02002000
:1029700010B58CB024216846FDF725FD00241648CB
:10298000099414490A94C0E900144FF6FF71C0E994
:102990000241046184610320CDE900040120CDE9F6
:1029A00002040F210491CDE90540CDE907416946B4
:1029B0000948FFF7EBF908B1FDF757FE099409A99B
:1029C00005480A94FFF7A2F8002801D0FDF74DFE54
:1029D0000CB010BD000400401403002010B58CB0F2
:1029E00024216846FDF7EFFC002416480994144999
:1029F0000A94C0E900144FF6FF71C0E90241046176
:102A000084610320CDE900040120CDE902040F21F7
:102A10000491CDE90540CDE9074169460948FFF732
:102A2000B5F908B1FDF721FE099409A905480A94F2
:102A3000FFF76CF8002801D0FDF717FE0CB010BDB1
:102A4000000800405C03002010B586B00024174841
:102A50000094019402940394049413490594016032
:102A60002921C0E9011442F20F71C0E90314846105
:102A7000FFF78AF808B1FDF7F8FD4FF48050009099
:102A800069460A48FFF714F908B1FDF7EEFD20206A
:102A9000CDE9040404A90548FFF738F8002801D05F
:102AA000FDF7E3FD06B010BD000C0040A4030020BC
:102AB000FEE7FEE708B5002000F00AF950208DF887
:102AC000000073208DF80100642302226946034848
:102AD000FEF737FE012000F0FBF808BD480000209B
:102AE0000449054A0968B1FBF2F14143491EFDD290
:102AF0007047000044000020C0C62D000020AFF346
:102B0000008070B5054600F051F90446C0F3801608
:102B10006EB115B1C4F3420028704021072000F0C7
:102B200091FAA00603D52021072000F08BFA304649
:102B300070BD00000FB47CB514460D460646582201
:102B400009A95C48FDF70DFC5B4B0120DE60DD80D0
:102B50001C8100F0BDF8002000F0B0F80520FEF761
:102B60007FF80821002000F06DFA3F21012000F0DD
:102B700069FA0321022000F065FA0321084600F0FB
:102B800061FA0321042000F05DFA0221052000F023
:102B900059FA0021062000F055FA0E21072000F016
:102BA00051FA0021082000F04DFA0021092000F020
:102BB00049FAE7248DF803408DF802408DF8014072
:102BC0008DF804408DF80040052269460A2000F087
:102BD00051FAC2208DF803008DF802008DF8010033
:102BE0008DF804008DF80000052269460B2000F0E6
:102BF00041FAC3210C2000F025FAC4210D2000F079
:102C000021FAC5210E2000F01DFAC6210F2000F088
:102C100019FA8DF803408DF802408DF801408DF8C7
:102C200004408DF8004005226946102000F022FA89
:102C30000021112000F006FA0021122000F002FA13
:102C40000021132000F0FEF90021142000F0FAF911
:102C50000021152000F0F6F90021162000F0F2F90D
:102C6000FFF728FF00211C2000F0ECF900211D20B7
:102C700000F0E8F90F21084600F0A2F9032000F067
:102C800079F9012000F048F9022000F02AF900F05B
:102C900029F8202000F08CF900F018F94C2000F001
:102CA00034F900F07FF800F079F800F0AFF87CBC60
:102CB0005DF814FB480000200000002002000348DB
:102CC0000189C06800D00122FEF7D4B800000020BE
:102CD00002000348C188C06800D00122FEF7CAB8CC
:102CE0000000002010B51D2000F0D0F820F00401F5
:102CF0001D2000F0A7F900211C2000F0A3F90249D3
:102D00000020C87010BD00000000002010B51D207C
:102D100000F0BCF840F006011D2000F093F91D20E2
:102D200000F0B4F848B9FFF7C5FE1D2000F0AEF87A
:102D300040F006011D2000F085F91C2000F0A6F8E7
:102D400040F00301BDE810401C2000F07BB90000FA
:102D500010B51D2000F09AF840F004011D2000F08D
:102D600071F91D2000F092F848B9FFF7A3FE1D206D
:102D700000F08CF840F004011D2000F063F91C20E5
:102D800000F084F840F03F011C2000F05BF902499C
:102D90000120C87010BD000000000020FF21E220CB
:102DA00000F050B9FF21E12000F04CB9072000F0FD
:102DB0006DB800007FB504001248134D06D0062CF4
:102DC0001ED8022C07D2005D052206E0DDE90212C2
:102DD000C5E90412F7E7005D012202A900F04AF9F3
:102DE0000848A978801F005D00F02CF9022000F04F
:102DF0004DF80121A1400843C1B2022000F022F9A0
:102E00007FBD0000263C00080000002010B5002017
:102E100000F03CF820F00201BDE81040002000F076
:102E200011B910B500F010F8172000F02FF800F0DD
:102E30000104FFF7B3FF602000F028F80CB1012077
:102E400010BD002010BD000038B505460D4884783F
:102E50008C4200D90C460020FFF73AFF61208DF824
:102E600000006423012269460748FEF76AFC6423D8
:102E7000224629460448FEF7B7FB0120FFF728FF4A
:102E800038BD0000000000204800002038B504468E
:102E90000020FFF71DFF04F01F008DF800006423E1
:102EA000012269460848FEF74CFC642301220648CB
:102EB0000DF10101FEF798FB9DF801400120FFF79D
:102EC00007FF204638BD0000480000207021072081
:102ED00000F0B8B808B13F2100E00021012000F067
:102EE000B1B810B504460020FFF7D0FF20F00C0168
:102EF0001CB1012C06D041F00C01BDE810400020AF
:102F000000F0A0B841F00801F7E77F2800D37F2048
:102F10000146052000F096B82DE9F04107464FF034
:102F200000080620FFF7B2FF114D00266E7120F059
:102F30002804022F0ED0012F10D06E7121460620DA
:102F400000F080F80620FFF7A1FFA0420BD14FF060
:102F5000010809E06E7144F02004EFE70120687178
:102F600044F00804EAE76E714046BDE8F0810000D5
:102F70000000002010B504460620FFF787FF20F070
:102F80000601032C0DD0022C05D0012C06D054B123
:102F9000042C06D007E041F0040104E041F00201F6
:102FA00001E041F00601BDE81040062000F04AB8FB
:102FB000202800D32020014988707047000000209D
:102FC00000F00F0060F31F11042000F03BB8000078
:102FD00010B50020FFF75AFF40F00301002000F079
:102FE00031F80B49D1E90401084305D0084905220D
:102FF00010310A2000F03EF8FFF7D4FEFFF7CEFEB6
:103000000120FFF75BFEBDE810409620FFF768BD8A
:103010000000002070B506460C46202A00D320226E
:1030200015460020FFF754FE06F0070040F0A80008
:103030002A46214600F01EF8BDE870400120FFF747
:1030400047BE000038B505460C460020FFF740FE9D
:1030500045F020008DF800008DF801406423022225
:1030600069460348FEF76DFB0120FFF731FE38BDCE
:1030700048000020F8B5044615460E460020FFF72C
:1030800027FE44F020008DF80000642301226946E9
:103090000648FEF756FB64232A4631460348FEF7EE
:1030A00050FB0120FFF714FEF8BD0000480000208F
:1030B000D0ED021AC0ED031A90EC020A30EE600A5D
:1030C00080ED020AD0ED040A70EE800AC0ED040A19
:1030D00090ED081AF4EEC10AF1EE10FA06DCB1EE3A
:1030E000411AF4EEC10AF1EE10FA01D280ED041A91
:1030F00070EE610A90ED071A90ED042A60EE811AD5
:10310000DFED110A81EEA01AD0ED051A21EE800A3A
:10311000D0ED061A61EE821A01EEA00A31EE000A25
:1031200010EE101A80ED090AB1F17E5F02DDB7EEF4
:10313000000A06E010EE101A11F1814F03D9BFEE1C
:10314000000A80ED090A70470AD7233C9FED072A41
:1031500080ED002A80ED012A80ED022A80ED032A0D
:1031600080ED042A143080EC050A7047000000004E
:103170009FED070A80ED000A80ED010A80ED020A4A
:1031800080ED030A80ED040A80ED090A7047000013
:1031900000000000704700009FED040A80ED000A67
:1031A00080ED010A8360C0E903127047000000004F
:1031B00010B504468068DFED1F0A4188808800EE64
:1031C000101A01EE900A1D48B8EE401AF8EE611A86
:1031D00081EE200A9FED181A81EEA02A30EE410AF6
:1031E00072EE410AB0EEC01A11EE101A9FED141AD9
:1031F000814202DD84ED000A01E084ED001AB0EEA8
:10320000E00A10EE101A814202DDC4ED010A01E06D
:1032100084ED011AE06894EC020A30EE600AFFF7D0
:10322000E5F894EC020A2069BDE8104030EE200A6F
:10323000FFF7DCB86F1283410000FA420000A040A3
:1032400000000000F8B5044640684FF482739842CD
:1032500021D1A0684FF48065B0F5004F01D0A8429D
:103260000AD12068066826F0400606606068984229
:1032700011D1A068A8420ED000920B4600228021F6
:10328000204600F039F8002804D0606D40F020009E
:1032900060650320F8BD00920B4600220121EFE794
:1032A00038B504461248134B0068B0FBF3F04FF4F6
:1032B0007A73584300906068B0F5827F0DD10B4659
:1032C000009200228021204600F016F870B1606D57
:1032D00040F020006065032038BD009830B1401EEA
:1032E000009020688068C0430006F6D5002038BDF5
:1032F0004400002000366E012DE9F8431E46914639
:1033000088460446089DFDF7BBFD401B351AFDF7B6
:10331000B7FD074625480068C0F3CB30684338E066
:10332000701C37D0FDF7ACFDC01BA84203D215B10D
:10333000009860B32CE02068416821F0E001416012
:103340006068B0F5827F0BD1A068B0F5004F02D065
:10335000B0F5806F04D12068016821F04001016060
:10336000A06AB0F5005F09D12068016821F400511E
:1033700001602068016841F400510160012084F877
:103380005100002084F850000320BDE8F883002598
:10339000401E00902068816838EA010004D00021B6
:1033A0004945BDD10020F0E70121F9E744000020A4
:1033B0007047FDF76BBD000030B593B03021684613
:1033C000FDF701F814210CA8FCF7FDFF1D480025AE
:1033D000016841F080510160006800F08050119058
:1033E0001948016821F4404141F40041016000683E
:1033F000022400F44040119001200090000401904C
:103400008001CDE9064019200890A820CDE90904E3
:1034100004200B906846FDF79FFE08B172B6FEE7E8
:103420000CA90F2081E831004FF48050CDE90F0541
:1034300002210CA8FDF7C4FD002801D072B6FEE7FA
:1034400013B030BD403802400070004002480168AF
:1034500041F470010160704788ED00E00148FEF71B
:1034600081BD0000A4030020F0B502681D4B1E4C76
:103470009F031E4D1E4E984207D0B84205D0A04271
:1034800003D0A84201D0B04204D122F0700C4A68A7
:1034900042EA0C02984210D0B8420ED0A0420CD0A2
:1034A000A8420AD0B04208D0124CA04205D0124C1B
:1034B000A04202D0114CA04203D122F44074CA6849
:1034C00022434C6922F08002224302608A68C26271
:1034D0000A688262984201D1096901630121416150
:1034E000F0BD000000000140000400400008004062
:1034F000000C0040004001400044014000480140F1
:1035000010B501F01F030121046A99408C43046245
:10351000016A9A401143016210BD10B5846842EA05
:10352000032224F47F440A432243826010BD826850
:1035300022F070020A4342F00701816070470000E8
:1035400030B5026A22F001020262026A43688469AD
:1035500024F073050C682C4322F002058A682A4384
:103560000A4DA8420BD122F00805CA6823F4407323
:103570002A434D6922F004021D438B692B434360AB
:10358000846149684163026230BD0000000001406F
:1035900030B5026A22F010020262026A436884694E
:1035A0000D6824F4E64444EA05248D6822F02002E4
:1035B00042EA05120B4DA8420ED1CD6822F08002DE
:1035C00042EA05124D6923F4406343EA85038D699D
:1035D00022F0400243EA85034360846149688163C5
:1035E000026230BD0000014030B5026A22F48072F0
:1035F0000262036A4268C46923F4007324F073050D
:103600000C682C438D6843EA05230C4DA8420ED16B
:10361000CD6823F4006343EA05234D6922F4405248
:1036200042EA05128D6923F4806342EA0512426082
:10363000C4614968C163036230BD000000000140FD
:1036400030B5026A22F480520262046A4268C36999
:103650000D6823F4E64343EA05238D6824F40054FF
:1036600044EA0534064DA84204D14D6922F4804253
:1036700042EA85124260C36149680164046230BD58
:103680000000014010B5036A046A24F001040462DA
:10369000846924F0F00444EA021423F00A020A4385
:1036A0008461026210BD10B5036A23F01003036247
:1036B0008369046A23F4704343EA023224F0A003CE
:1036C00043EA01118261016210BDFEE70907090E9C
:1036D000002804DB00F1E02080F80014704700F0BF
:1036E0000F0000F1E02080F8141D70472DED028BD3
:1036F000ACB0FDF7D3FBFFF75FFEFEF7FDFFFEF773
:10370000E5FFFEF79BFFFFF783F8FFF7E5F8FFF70C
:103710002FF9FFF763F9FFF797F9FFF755F89FEDDA
:103720005F8AF0EE481ADFED5E8AB0EE681ADFEDD0
:103730005D0A9FED5D0A5D48FFF708FDF0EE481A4F
:10374000B0EE681ADFED5A0A9FED5A0A5748283042
:10375000FFF7FCFC554858492038FCF780FF5348D8
:1037600056491038FCF77BFF50484FF40052A0F147
:103770002001534C5610CDE90221CDE9006404909C
:10378000234600224F495030FEF716FEB200570084
:1037900000974648CDE901422830A0F13801CDE933
:1037A00003102346042248495830FEF705FE3F4ADD
:1037B000464B8032A2F1300101F16000FFF7ECFCD2
:1037C0003A4C3C21B034E06880690068FEF782FB27
:1037D00020693C2180690068FEF77CFBE0688188F5
:1037E0000068FEF743FD206981880068FEF73EFD12
:1037F0003748FEF727FA3622364915A8FCF7B1FDFF
:10380000344DE88EADF88A00A86B2390A88FADF8F0
:103810009000E88FADF89200112205F1400125A833
:10382000FCF79FFD95F851008DF8A500686D2A9072
:10383000542216A96846FCF794FD324639462648BC
:10384000159BFFF777F90120FFF744FB3220FFF7C4
:103850005CFB0620FFF7ACFB1C4D01200C3DD5E9BD
:103860000623FFF7A7FAFFF773FAFFF74FFAFFF700
:10387000AFFB00BFFFF742F968B10621A068FFF770
:10388000D0FA40B168681149401C68600622091FDF
:103890000120FFF7BFFBFEF779FDEBE700C05A45BB
:1038A0006F12833A8FC2F53CCDCCCC3DC0000020D6
:1038B0003108AC3C5C8FC23D140300205C03002047
:1038C0000004024084020020CC02002024000020DA
:1038D000A40300202C020020000002404FEA1153F4
:1038E000A3F58063D3F11E03A8BFD3F1200C08DB3E
:1038F0004FF0004242EAC12252EA505232FA03F03B
:10390000704709420BD4102BC4BF0020704703F549
:10391000787CBCF1FF3F05D04FF0FF3070474FF08F
:103920000000704770B500F0B1F800BF49922480E4
:1039300000207047F0E70000DFF848C170B51CEACE
:10394000111E1EBF1CEA13159EEA0C0F95EA0C0F00
:1039500000F06F8081EA030423EA4C134EEAD47E20
:1039600021EA4C1141F4801143F48013AE44A1FBD1
:10397000024CA0FB0365AEF17F7E361955EB0C05BA
:10398000A1FB034C4CF10003A0FB021C16EB0C0640
:10399000654153F10003094218BF46F0010613F4D4
:1039A000007F0BD14FEA03314FEA0530340341EA7F
:1039B000155140EA16506FF003020AE04FEAC321A6
:1039C0004FEAC520F40241EA555140EA56506FF0E3
:1039D000020202EB2E4201EB025585EACE710AD0BB
:1039E0005FEA440C18BF24F0004450F1000041F19C
:1039F000000120EAD47040F2FE7C624500D270BD26
:103A0000A84214BF4FF080444FF04044002E08BF3E
:103A10000024BEF1806FA8BFA1F1C041BDE8704095
:103A200080F282804FF0000001F1C04101F00041BE
:103A300070479EEA0C0F0CEA131518BF95EA0C0F9D
:103A400006D04FF0000081EA030E0EF0004170BD79
:103A500000F01CF88900013E00F007B800F009B83A
:103A60004FEA430C5FEA5C5C08D081EA030100F096
:103A70005BB84FEA410C5FEA5C5CF6D14FF00000A6
:103A8000014970470000FF070000F87F0EF1020EA9
:103A90002EF0030E5EF8046B364205D4012A43EB88
:103AA000030515F5001F12D8012841EB010C1CF588
:103AB000001F0CD80ED14FEAD17C15F5001F0CEB7E
:103AC0004C0C0CF1020C08BF4CEBD37C04E04FF023
:103AD000080C01E04FEAD37C0CEB4C0526FA05F606
:103AE00006F00706B6F1040C06D20EEB860CBDE814
:103AF00070404CF0010C6047DFE80CF0090B02024B
:103B00004FF000414FF00000A1F5002170BD1946B3
:103B10001046012851EB010418BFD4F5001484BFEE
:103B2000002001F0004170BD0808A0F500114FEA27
:103B30003101704743004FEAD30C4FEA3C0C43403D
:103B40001FBF40070CF1605113F0FE4F70471CF08F
:103B5000006F03D100200CF0004170470CF00043CF
:103B600043EA507010B540EACC0000F00EF800BFF8
:103B7000000000924FEA0001FFF7D6BF4FF000416E
:103B80004FF00000A1F5002170470EF1020E2EF05B
:103B9000030E5EF8044B244204D44FEA4102B2F112
:103BA0007F4F11D84FEA4003B3F17F4F0CD80ED1AD
:103BB0004FEAD07CB2F17F4F0CEB4C0C0CF1020CB5
:103BC00008BF4CEBD17C04E04FF0080C01E04FEA59
:103BD000D17C0CEB4C0324FA03F404F00704B4F199
:103BE000040C06D20EEB840CBDE810404CF0010C26
:103BF0006047DFE80CF0070802024FF00040A0F534
:103C0000800010BD0846420018BFD2F1807288BF04
:103C100000F0004010BD4FF04070E1EE100A704718
:103C20001112131415160A0B0C0D0E0F10000610AE
:103C3000160006101600000000000000000102033C
:103C40000406070809000000683C00080000002086
:103C500048000000D0010008B03C000848000020E7
:103C6000080A0000EC01000800000000000000004D
:103C70000000000000000000000000000000000044
:103C8000000000000000000040E201000000000011
:103C900000000000000000001111111111000000CF
:103CA0000100000010000000000000000024F400EB
:040000050800019559
:00000001FF
