:020000040800F2
:10000000800800204502000813230008332100085F
:1000100011230008010A0008852C000800000000D8
:10002000000000000000000000000000512A00084D
:10003000B50A000800000000E1280008532A000863
:100040005F0200085F0200085F0200085F0200080C
:100050005F0200085F0200085F0200085F020008FC
:100060005F0200085F0200085F0200085F020008EC
:100070005F0200085F0200085F0200085F020008DC
:100080005F0200085F0200085F0200080000000035
:100090000000000000000000000000005F020008F7
:1000A0005F0200085F0200085F0200085F020008AC
:1000B0005F0200085F0200085F0200085F0200089C
:1000C0005F0200085F0200085F0200085F0200088C
:1000D0005F0200085F0200085F02000800000000E5
:1000E0005F0200085F0200085F02000800000000D5
:1000F0000000000000000000000000005F02000897
:10010000000000005F0200085F0200085F020008B4
:1001100000000000000000000000000000000000DF
:10012000050A00085F0200085F0200085F0200087D
:100130005F02000800000000000000000000000056
:100140000000000000000000000000005F02000846
:100150005F0200085F0200085F0200085F020008FB
:100160005F0200085F0200080000000000000000BD
:10017000000000000000000000000000000000007F
:10018000000000005F020008000000000000000006
:100190005F02000800F002F800F044F80AA090E8BE
:1001A000000C82448344AAF10107DA4501D100F032
:1001B00039F8AFF2090EBAE80F0013F0010F18BFBB
:1001C000FB1A43F00103184798350000B8350000CA
:1001D000103A24BF78C878C1FAD8520724BF30C873
:1001E00030C144BF04680C60704700000023002445
:1001F00000250026103A28BF78C1FBD8520728BF37
:1002000030C148BF0B607047642900F0EF80782947
:1002100000F02881002070471FB503F001FA1FBDD0
:1002200010B510BD00F0D7FA1146FFF7F5FF02F048
:1002300041FD00F0F5FA03B4FFF7F2FF03BC00F054
:10024000FDFA00000948804709480047FEE7FEE73D
:10025000FEE7FEE7FEE7FEE7FEE7FEE7FEE7FEE776
:1002600004480549054A064B70470000F12A00087A
:1002700095010008800200208008002080040020F2
:100280008004002053EA020C00F069802DE9F04B55
:100290004FF00006002B1FBFB3FA83F503FA05F4F5
:1002A00024FA05F65E4012BF1643B2FA82F502FA4E
:1002B00005F4C5F120051EBF22FA05FC44EA0C0432
:1002C000203556EA044C4FEA144418BF641C4FF022
:1002D00000084FF00009904271EB030C39D300295C
:1002E00019BFB1FA81F701FA07F6B0FA80F700FA00
:1002F00007F6C7F120071EBF20FA07FC46EA0C06E6
:100300002037B6FBF4FCA7EB0507103F07F01F0BE7
:10031000CBF120060CFA0BFB2CFA06F644BFB346D1
:100320000026202FA4BF5E464FF0000B5BEA060CB0
:1003300008BF4FF0010B19EB0B09ABFB027C48EB3C
:100340000608C01B06FB02CC0BFB03CC71EB0C01B7
:10035000C1E70B46024641464846BDE8F08B13B55F
:100360004FF000004FF00001AFF30080BDE81C40EB
:10037000704700000FB41CB5074B06AA7B446946C2
:100380000090059800F00FFA0020694600F01EFA70
:100390001CBC5DF814FB00004D04000070B5044661
:1003A00085690068C10601D5302600E02026C00717
:1003B00007D070BDD4E9012130469047206A401C27
:1003C00020626D1EF6D570BD70B504468569007853
:1003D000C00707D170BDD4E9012120209047206AD1
:1003E000401C20626D1EF6D570BD00002DE9F04165
:1003F0000646002410687529314616A510D0AFF3C3
:100400000080002802DA404213A507E031688A071D
:1004100001D512A502E0490704D511A5012401E088
:10042000AFF3008000210A2206F1240709E0B0FBA7
:10043000F2FCB0FBF2F302FB1C003030785418469B
:10044000491C0028F3D123462A463046BDE8F04136
:1004500000F04BB9000000002D0000002B00000050
:100460002000000070B504460D4621461068AFF329
:1004700000802188090502D50F4A7A4402E00E4A1D
:100480007A440E32002104F1240305E000F00F0647
:100490000009965D5E54491C0028F7D1207800239E
:1004A000000704D5702D02D009B102231132204675
:1004B000BDE8704000F019B9CC3100002DE9F05FC3
:1004C000894604464FF0000ADFF824B1FB44C0F827
:1004D00020A02046E168884700287DD0252806D046
:1004E000D4E901219047206A401C2062F1E70025F1
:1004F0005F462046E16888472028064607DB312E04
:1005000005D2B81910F8200C08B10543F1E7A80787
:1005100001D525F00405C4F81CA00027C4F818A0D4
:100520002A2E09D0304602F0BEFB38B304EB870810
:10053000303EC8F8186019E059F8041B204604EB57
:1005400087029161E1688847012F064618D1E0696A
:10055000002820DA25F020051DE0D8F8180000EB6F
:10056000800006EB40003038C8F818002046E168EB
:100570008847064602F097FB0028EED1012F0AD0EB
:100580002E2E08D12046E16888477F1C0646022FA0
:1005900045F02005C4DBA069002803DA404245F09D
:1005A0000105A061E80701D025F01005A6B1A6F16C
:1005B0004100192802D8203645F400654A463146E4
:1005C000204625604D46FFF71FFE60B1012807D089
:1005D000ED1D25F0070000E007E000F1080978E7CD
:1005E00005F1040975E730467AE7206ABDE8F09F17
:1005F000A231000010B5431C02E010F8011B71B1DC
:100600008107FAD14FF0013202C88C1A8C4314EAE8
:10061000C211F9D0C01A0A0603D0C01E10BDC01AFC
:1006200010BD0A0401D0801E10BD0902FCD0401E7E
:1006300010BD10B5203AC0F00B80B1E81850203A38
:10064000A0E81850B1E81850A0E81850BFF4F5AF72
:100650005FEA027C24BFB1E81850A0E8185044BFFC
:1006600018C918C0BDE810405FEA827C24BF51F869
:10067000043B40F8043B08BF7047D20728BF31F85D
:10068000023B48BF11F8012B28BF20F8023B48BFAE
:1006900000F8012B70474FF0000200B51346944656
:1006A0009646203922BFA0E80C50A0E80C50B1F1CA
:1006B0002001BFF4F7AF090728BFA0E80C5048BFDE
:1006C0000CC05DF804EB890028BF40F8042B08BF7C
:1006D000704748BF20F8022B11F0804F18BF00F878
:1006E000012B70477047704770472DE9F0470D4662
:1006F00099469246044600F124080168880604D50C
:10070000E06921F01001216000E00120A84201DD34
:10071000471B00E00027A1697A1902EB0900081ABB
:10072000A0612078C00602D42046FFF737FE0026DD
:1007300008E0D4E901211AF806009047206A401C1D
:10074000761C20624E45F4DB2078C0060AD5204690
:10075000FFF724FE06E0D4E9012130209047206A0B
:10076000401C2062381EA7F10107F4DC07E0D4E941
:10077000012118F805009047206A401C2062281EBD
:10078000A5F10105F3DC2046FFF71EFE20780006E8
:1007900002D50220BDE8F0870120FBE701694A1C71
:1007A00002610878704700B58FB0CDE901310021B2
:1007B000059105497944CDE9031011466846FFF7D4
:1007C0007DFE0FB000BD0000E5FFFFFF0A6802F8E4
:1007D000010B0A607047754600F02CF8AE46050024
:1007E0006946534620F00700854618B020B5FFF74C
:1007F00037FDBDE820404FF000064FF000074FF0F6
:1008000000084FF0000B21F00701AC46ACE8C0092E
:10081000ACE8C009ACE8C009ACE8C0098D46704737
:1008200010B50446AFF300802046BDE81040FFF746
:1008300002BD000000487047200200200149182036
:10084000ABBEFEE726000200704710B50146806B84
:10085000026C12F0500F05D0026CD20626D500F0C3
:10086000D5F910BD016C41F40071016401688A681A
:1008700012F0405F17D1027EAAB9CA6A12F4700F53
:1008800002D08A6852050ED44A6822F020024A60DB
:10089000016C21F480710164016CC90403D4016C02
:1008A00041F00101016400F0AFF910BD806BC26C32
:1008B000BDE810400846104710B5806B4021016428
:1008C000416C41F00401416400F0A0F910BD10B585
:1008D000806B00F09AF910BD464910B54A6822F4C1
:1008E00040324A604A6843681A434A6001684A686D
:1008F00022F480724A6001684A68036942EA03226E
:100900004A6001684A6822F040724A6001684A6899
:1009100083681A434A6001688A6822F400628A6028
:1009200001688A68C3681A438A60816A6FF07062DE
:10093000D14201688A6822F070628A6001688A6820
:100940000CD0836A1A438A6001688A6822F0405298
:100950008A6001688A68C36A1A4301E022F0405243
:100960008A6001688A6822F002028A6001688A68E7
:10097000037E42EA43028A6090F820100029016851
:100980004A680FD042F400624A6001684A6822F463
:1009900060424A6001684A68174C436A04EB43337B
:1009A0001A4301E022F400624A600168CA6A22F434
:1009B0007002CA620168CA6A838B104C04EB03534D
:1009C0001A43CA6201688A6822F400728A60016868
:1009D0008A6890F8303042EA43228A6001688A6867
:1009E00022F480628A6001688A68406942EA802055
:1009F000886010BD0023014000E0FFFF0000F0FF11
:100A0000FEE70000014800F00BBA000024010020BE
:100A100001681823CAB2103AB2FBF3F2054B6FF328
:100A20000901032A9B5CC36500D9091D816508463D
:100A3000704700002A36000810B5014600208B6977
:100A40008A6A4FF0C07453B1B3F5005F15D072B12C
:100A5000012A0CD0022A0AD0032A09D104E01AB1D3
:100A6000012A06D0022A03D1C96AC90100D5012092
:100A700010BDC96AA142FAD010BD002AF7D0012AE0
:100A8000F2D0022AF3D0032AF3D010BD30B50468A7
:100A9000256825F480252560046863608368402B01
:100AA000036803D099600068C26030BD9A60006836
:100AB000C16030BD704772B6FEE7000078B5002413
:100AC000009490F83C20012A19D0012280F83C20A3
:100AD0000A6807230568092A13D9EE680A3A02EB67
:100AE000420293409E43EE600B788A680A3B03EB18
:100AF00043039A400368DD682A43DA6010E002206D
:100B000078BD2E6902EB420293409E432E610B7822
:100B10008A6803EB43039A4003681D692A431A61FC
:100B20004A681F23072A13D205686E6B521E02EB18
:100B3000820293409E436E630B790A885B1E92B2D9
:100B400003EB83039A4003685D6B2A435A6327E0F3
:100B500005680D2A12D22E6BD21F02EB820293403F
:100B60009E432E630B790A88DB1F92B203EB83034B
:100B70009A4003681D6B2A431A6311E0EE6A0D3A2E
:100B800002EB820293409E43EE620B790A880D3B92
:100B900092B203EB83039A400368DD6A2A43DA6268
:100BA000164B0568144A9D4206D10D68122D03D1DB
:100BB000556845F48005556005689D4218D10B685D
:100BC000102B01D0112B13D1536843F40003536051
:100BD000096810290CD10A490A4A0968B1FBF2F1E7
:100BE00001EB8101490000E0491E00910029FBD181
:100BF00080F83C40002078BD0023014000200140E7
:100C00003C00002040420F0070477047704770B5AD
:100C100004004FF0000503D0206C002610B107E05F
:100C2000012070BD204600F01DF8666484F83C6029
:100C3000206CC00610D4206C20F4885040F00200D4
:100C400020642046FFF748FE6664206C20F0020016
:100C500040F00100206400E0012584F83C60284653
:100C600070BD000070B586B0064614216846FFF7D7
:100C700012FD1D493068884233D11C4800250168A7
:100C800041F480710160006800F48070059017489D
:100C90001438016841F0010101600068694600F004
:100CA0000100059003200090CDE90105104800F0F7
:100CB0003BFA114C0F48C4E900050015A560C4E9D2
:100CC0000350400060618000A0614011C4E9070545
:100CD0002046656200F074F908B1FFF7ECFEB463DA
:100CE000A66306B070BD00000020014044380240F9
:100CF000000002401064024024010020F8B50446C0
:100D000000200E46009094F83C10012907D00121E4
:100D100084F83C1021688B68DB0702D011E00220C8
:100D2000F8BD8B6843F001038B603649364B096888
:100D3000B1FBF3F101EB410100E0491E00910029F4
:100D4000FBD121688B68DB0503D58B6823F48073A6
:100D50008B6021688B68DB0749D0236C40F201650A
:100D6000AB4343F4807323644968490505D5216C7E
:100D700021F4005141F480512164216CC90404D54F
:100D8000616C21F00601616400E0606484F83C005D
:100D9000A16B1F481D4DC863A16B1E480864A16B61
:100DA0001D48C86421686FF022000860206841680F
:100DB00041F0806141602068816841F48071816008
:100DC0002168134632464C31A06B00F063F9686825
:100DD000C006206802D01149884210D1816811F004
:100DE000405F0CD1816841F08041816007E0206C58
:100DF00040F010002064606C40F00100606400204E
:100E0000F8BD00003C00002040420F0000230140DC
:100E10004B080008CF080008B9080008002001406E
:100E20002DE9F84304464FF00009CDF800906348DF
:100E30004FF41651A56D0068B0FBF1F72E6894F8D9
:100E40005C10082000FA01F131420FD021680A68D5
:100E500052070BD50A6822F004020A6094F85C106D
:100E60008840A860606D40F00100606594F85C10F7
:100E70004FF0010808FA01F0304208D021684969B2
:100E8000090604D5A860606D40F00200606594F822
:100E90005C1004208840304208D021680968890726
:100EA00004D5A860606D40F00400606594F85C10A3
:100EB00010208840304218D021680968090714D5ED
:100EC000A86020680168490304D50068000308D5BC
:100ED000A16C07E00168C90503D4016821F008018D
:100EE0000160216C09B12046884794F85C102020ED
:100EF0008840304231D021680968C9062DD5A860E4
:100F000094F8350005282068016806D0490347D5C4
:100F1000006800031DD4616C1CE021F01601016023
:100F20002068416921F080014161206C08B9A06C02
:100F300020B12068016821F00801016094F85C107C
:100F40003F208840A86084F8358084F83490216D73
:100F50001FE0E16B09B120468847606D00282BD067
:100F6000606DC00714D0052084F835002068016842
:100F700021F0010101600098401C0090B84203D8A4
:100F800020680068C007F6D184F8358084F8349072
:100F9000E16C002910D001B02046BDE8F0430847BD
:100FA0000168C905D5D4016821F01001016084F8F9
:100FB000358084F83490CCE7BDE8F8833C0000200D
:100FC0002DE9F041044600F0A9F906465CB1022083
:100FD00084F83500002584F834502068016821F039
:100FE000010101600DE00120BDE8F08100F096F9FB
:100FF000801B052805D920206065032084F8350072
:10100000F2E720680068C007F0D122681168204824
:101010000140D4E901031843D4E9033633431843AC
:1010200063691843A3691843E3691843236A1843A3
:101030000843616A042903D1D4E90B131943084317
:10104000106020684069666A20F0070130460E4350
:10105000012704280CD1A06A0643E06A40B120466B
:10106000FFF7EAFC20B14020606584F83570BAE7EC
:10107000206846612046FFF7CBFC94F85C203F21B6
:1010800091408160656584F835700020ACE7000010
:101090003F8010F02DE9F0410446866D90F8340051
:1010A000002501280DD0012084F8340094F8357013
:1010B0000020012F07D084F8340002252846BDE81F
:1010C000F0810220FBE7022784F835706065204636
:1010D000FFF7DCFC94F85C103F208840B06020688B
:1010E000016841F016010160206C20B120680168A0
:1010F00041F0080101602068016841F001010160D0
:10110000DCE7000070B5044600F008F90546601CF5
:1011100002D004480078044400F000F9401BA042CB
:10112000FAD370BD300000202DE9F84FDFF8B8A1E8
:101130000022012403254FF00F090AF1040BAAF144
:10114000040E00BF0B6804FA02F63340B34273D1B9
:101150000F7907F00307012F01D0022F16D18768FE
:101160004FEA420805FA08FC27EA0C07D1F80CC040
:101170000CFA08FC4CEA070CC0F808C04768B743F3
:101180000E79C6F3001696403E4346600E79F6434C
:10119000B6070DD0C768560005FA06FC27EA0C070B
:1011A000D1F808C00CFA06FC4CEA070CC0F80CC0D9
:1011B0000E7906F00306022E10D1D60800EB860841
:1011C000D8F8206057074FEAD76C09FA0CF7BE43EE
:1011D0000F6907FA0CF73743C8F8207006684FEA22
:1011E000420C05FA0CF7BE430F7907F0030707FA24
:1011F0000CF7374307604E6816F4403F6DD03B4E06
:10120000376847F480473760366822F0030706F4F2
:1012100080460096364E07EB060CDCF80868970708
:101220003F0F09FA07F826EA0806DFF8C8804045AC
:1012300003D14FF000081EE04FE0DFF8BC804045CE
:1012400002D14FF0010816E0DFF8B080404502D12E
:101250004FF002080FE0DFF8A880404502D14FF0C0
:10126000030808E0DFF89C80404502D14FF00408F5
:1012700001E04FF0070808FA07F848EA0608CCF83A
:101280000888DAF800605746D1F804C09E435FEA48
:10129000CC2C00D51E433E60DBF800605F46D1F8E1
:1012A00004C09E435FEA8C2C00D51E433E60DEF8EE
:1012B00000607746D1F804C09E435FEA8C3C00D5BD
:1012C0001E433E60084F083F3E68D1F804C09E436D
:1012D0005FEACC3C00D51E433E60521C102AFFF44E
:1012E00031AFBDE8F88F0000083C014044380240AF
:1012F00000300140000002400004024000080240AB
:10130000000C0240001002400069084000D001209B
:1013100070470AB1816170470904FBE701488068A2
:1013200070470000300000200248816802781144B4
:1013300081607047300000200B4810B5016841F40F
:1013400000710160016841F480610160016841F44D
:1013500080710160032000F071F8002000F006F8B1
:1013600000F024F8002010BD003C024070B50D4D87
:1013700004464FF47A712878B1FBF0F00A49096805
:10138000B1FBF0F000F003FE48B9102C07D20022A8
:101390002146501E00F032F800206C6070BD012024
:1013A00070BD0000300000203C0000200B4882B0DF
:1013B000016841F480410160006800F480400090C1
:1013C0000648001F016841F080510160006800F08C
:1013D00080500090072002B000F030B8443802403E
:1013E000002809DB00F01F02012191404009800024
:1013F00000F1E020C0F8001170470000F0B40E4B7F
:101400001B680C46C3F30223C3F10705042D00D962
:101410000425191D072901D2002300E0DB1E012647
:1014200006FA05F1491E214099409E40761E16405D
:101430003143F0BC01F027BC0CED00E0064900F0A0
:10144000070208684FF6FF03184040EA0220034AEB
:1014500010430860704700000CED00E00000FA0542
:101460002DE9F0470E46050065D0DFF81481D8F865
:101470000000F7B200F00700B04207D288F8007011
:10148000D8F8000000F00700B04254D128683D4C65
:10149000810712D5400703D5206840F4E050206052
:1014A0002878000703D5206840F460402060206859
:1014B000A96820F0F000084320602878C0072DD0EC
:1014C000304968680839012812D0022813D003284F
:1014D00011D00968890700292DDA216821F003015C
:1014E00001432160FFF71AFF814641F2883A0EE07E
:1014F00009688903EFE709688901ECE7FFF70EFF48
:10150000A0EB0901514502D90320BDE8F08720680E
:10151000696800F00C00B0EB810FEFD1D8F8001033
:10152000404601F00701B14207D90770006800F09A
:101530000700B04201D00120E7E72878400705D531
:101540002068E96820F4E05008432060287800070C
:1015500006D52068296920F4604040EAC100206077
:1015600000F038F82168084AC1F30311515CC84003
:101570000649086006480068FFF7F8FE0020C4E747
:10158000003C024008380240323600083C0000208F
:10159000340000200448054900680968044AC1F382
:1015A0008221515CC84070473C000020083802404E
:1015B000423600080448054900680968044AC1F336
:1015C0004231515CC84070473C000020083802405E
:1015D00042360008154810B5006810F00C02144897
:1015E00013D04110042A0FD0082A0ED10F4C241F0B
:1015F0002268236802F03F025B0207D52068C0F32F
:101600008810A0FB010106E0084610BD2168C1F367
:101610008811A1FB00010023FEF734FE2168C1F30D
:101620000141491C4900B0FBF1F010BD08380240EF
:101630000024F4002DE9F84F04006ED02078DFF884
:101640004C93C007A9F104054AD009F104000168D0
:10165000C1F38101012908D00068C0F3810002288C
:101660000AD1D9F80000400206D52868800337D592
:1016700060680028E1D033E06068B0F5803F10D0AA
:10168000B0F5A02F286810D020F48030286028689A
:1016900020F4802028606068A8B1FFF73FFE06466E
:1016A0000DE0286840F48030F4E740F480202860A2
:1016B000F7E700BFFFF732FE801B642873D8286865
:1016C0008003F7D50CE0FFF729FE064605E000BFD2
:1016D000FFF724FE801B6428F0D828688003F7D425
:1016E0002078DFF8AC8280074FF0000A3ED5A7488B
:1016F000001D016811F00C0F08D00068C0F38100D4
:1017000002280BD1D9F80000400207D428688007CE
:1017100016D5E068012800D112E033E1E068B8B1E5
:101720000120C8F80000FFF7F9FD064605E000BFFC
:10173000FFF7F4FD801B0228C0D828688007F7D582
:101740002868216920F0F80040EAC10028600DE017
:10175000C8F800A0FFF7E2FD064604E0FFF7DEFD53
:10176000801B02281FD828688007F7D4207800073C
:1017700022D5864F87486169703771B101210160B8
:10178000FFF7CCFD064604E0FFF7C8FD801B0228EA
:1017900009D838688007F7D50EE0C0F800A0FFF739
:1017A000BDFD064605E082E0FFF7B8FD801B02287C
:1017B0007DD838688007F7D42078400768D5DFF8EF
:1017C000CCB100270BF13C0BDBF80000C0000BD4C0
:1017D000DBF8001041F08051CBF80010DBF800007E
:1017E000012700F0805000906B4E3068C00510D487
:1017F000306840F480703060FFF790FD009005E0A5
:10180000FFF78CFD0099401A022850D83068C005B7
:10181000F6D55E4EA0686C3601280FD005283068DA
:1018200010D020F001003060306820F004003060FB
:10183000A068B8B1FFF772FD00900FE0306840F08B
:101840000100F4E740F004003060F7E7FFF766FDC1
:101850000099411A41F28830814266D83068800789
:10186000F4D50EE0FFF75AFD009007E0FFF756FDB4
:101870000099411A41F28830814256D83068800779
:10188000F4D42FB1DBF8001021F08051CBF8001018
:10189000A069C8B33D49091D0968C1F38101022946
:1018A0004AD00228504607D0C8F8600000E03CE06B
:1018B000FFF734FD04463BE04746C8F86000FFF7F9
:1018C0002DFD064605E000BFFFF728FD801B02281E
:1018D0002BD828688001F7D4D4E907010843A16A0E
:1018E0002E4A490802EB0141626A41EA821108432B
:1018F00094F82C1040EA0161C9F800100120386604
:10190000FFF70CFD044606E03EE000BFFFF706FDD2
:10191000001B022809D828688001F7D534E000BFF1
:10192000FFF7FCFC001B022802D90320BDE8F88F5A
:1019300028688001F4D427E00128F7D0D9F8000006
:10194000E26900F4800191421CD1226A00F03F015B
:10195000914217D147F6C071626A0140B1EB821F14
:1019600010D1A26A4FF0FF3300F4403103EB520272
:10197000B1EB024F06D194F82C1000F07060B0EB80
:10198000016F01D00120D1E70020CFE704380240E9
:1019900000004742800E4742007000400000FFFFF9
:1019A00070B5040009D0606A002540B12561656109
:1019B000A56294F8510040B10CE0012070BD606850
:1019C000B0F5827FF4D0E561F2E784F8505020460C
:1019D00000F044F8022084F851002068016821F0EA
:1019E00040010160A088218900F4827001F4044163
:1019F0000843A18901F400610843217C01F0020140
:101A00000843217D01F001010843218B01F400719D
:101A10000843217F01F03801084394F8201001F0B9
:101A200080010843218D01F40051084321680860BA
:101A3000A069042101EA104094F8241001F010017B
:101A40000843216848602068C16921F40061C161D0
:101A50006565012084F85100002070BDF0B587B0A5
:101A6000044614216846FEF716FE1C492068884289
:101A700032D11B480024016841F4804101600068B4
:101A800000F48040059016481038016841F00401C8
:101A90000160016801F004010591016841F0020153
:101AA00001600068022500F0020005900C20CDE9DD
:101AB000000502AA0326052782E8D00069460948E6
:101AC000FFF732FB6802CDE9000502AA694682E809
:101AD000D0000548FFF728FB07B0F0BD00380040F4
:101AE0004038024000080240000402402DE9F84F4F
:101AF000044640680025984616460F464FF0040BF2
:101B0000B0F5827F01D1A06888B194F85000012817
:101B100018D0012084F85000FFF700FC814694F8AB
:101B200051004FF0000A01280ED0022582E084F80F
:101B300051B013460A462046CDF8008000F036F931
:101B4000BDE8F88F0220FBE7002F72D0002E70D086
:101B500084F851B0C4F854A0A763A687E687C4F8F8
:101B600030A0A4F834A0A4F836A0C4F840A0C4F86B
:101B700044A0A068B0F5004F09D12068016821F0A9
:101B8000400101602068016821F480410160206803
:101B90000168490603D4016841F040010160E06832
:101BA000D8B139E020688168C90709D0007BA16BF2
:101BB0000870A06B401CA063E08F401EE0870CE023
:101BC000FFF7ACFBA0EB0901414503D3B8F1FF3FA0
:101BD00003D036E0B8F1000F33D0E08F0028E1D118
:101BE0001DE020688168C90709D0C068A16B088022
:101BF000A06B801CA063E08F401EE0870CE0FFF725
:101C00008DFBA0EB0901414503D3B8F1FF3F03D0A1
:101C100017E0B8F1000F14D0E08F0028E1D14A4658
:101C20004146204600F05DFE08B120206065606DF1
:101C300000B10125012084F8510084F850A0284605
:101C40007EE70325F6E72DE9F84F044690F85000AB
:101C500000271D461646894601280DD04FF0010B7E
:101C600084F850B0FFF75AFB804694F85100BA460A
:101C7000012804D0022793E00220BDE8F88FB9F1D3
:101C8000000F73D0002E71D0032084F85100C4F8E7
:101C900054A0C4F83090A686E686C4F838A0A4F80C
:101CA0003CA0A4F83EA0C4F844A0C4F840A0A0689A
:101CB000B0F5004F09D12068016821F040010160B2
:101CC0002068016841F4804101602068016849068C
:101CD00003D4016841F040010160E068B0F5006F95
:101CE000606803D030B3012E24D041E008B1012E4A
:101CF0001CD1206B21680088C86006E020688168DC
:101D0000890709D5216B0988C160206B801C20637D
:101D1000E08E401EE08609E0FFF700FBA0EB080024
:101D2000A84202D3681C01D031E07DB3E08E0028C8
:101D3000E4D120E0206B21680078087306E0206879
:101D40008168890709D5216B09780173206B401CD4
:101D50002063E08E401EE0860AE0FFF7DFFAA0EB8A
:101D60000800A84203D3681C02D010E017E06DB150
:101D7000E08E0028E3D142462946204600F0E0FDEF
:101D800008B120206065A06818B106E0FFE70327CE
:101D900006E02068C16880680090606D00B101278E
:101DA00084F851B084F850A0384666E72DE9F84F22
:101DB000044690F8500000270A9E1D4692468B4626
:101DC0004FF0010901280ED0012084F85000FFF7E0
:101DD000A5FA804694F85100616801280CD0B1F54D
:101DE000827F07D102E00220BDE8F88FA16809B91F
:101DF000042801D00227C2E0BBF1000F27D0BAF1BE
:101E0000000F24D01DB394F85100042802D00520FF
:101E100084F8510000206065C4F838A0E587A587E4
:101E2000C4F830B0E586A586206460642068016847
:101E3000490603D4016841F040010160E068B0F553
:101E4000006F606805D0E8B3012D46D07FE0012720
:101E500095E008B1012D39D1206B21680088C86058
:101E6000206B801C2063E08E401EE0862EE0206800
:101E7000816889070FD5E18E69B1B9F1010F0AD1E7
:101E8000216B0988C160206B801C2063E08E401E9E
:101E9000E0864FF0000920688168C9070CD0E18F07
:101EA00051B1C068A16B0880A06B801CA063E08F5B
:101EB000401EE0874FF00109FFF730FAA0EB080061
:101EC000B04200E009E001D3701C50D1E08E002840
:101ED000CDD1E08F0028CAD13FE0206B2168007887
:101EE0000873206B401C2063E08E401EE0862EE0CD
:101EF0002068816889070FD5E18E69B1B9F1010FBA
:101F00000AD1216B09780173206B401C2063E08E9D
:101F1000401EE0864FF0000920688168C9070CD098
:101F2000E18F51B1C068A16B0870A06B401CA06329
:101F3000E08F401EE0874FF00109FFF7EFF9A0EBBB
:101F40000800B04202D3701C01D010E07EB1E08ED8
:101F50000028CDD1E08F0028CAD142463146204624
:101F600000F0EEFC28B101272020606507E0032780
:101F700005E0A06818B92068C16880680090012059
:101F800084F85100002084F8500038462CE710B542
:101F9000401EB0F1807F01D3012010BD4FF0E0243E
:101FA00060610F21601700F06EFE0020A061072025
:101FB0002061002010BD70B5040004D094F83D00ED
:101FC000002510B106E0012070BD84F83C50204689
:101FD00000F022F8242084F83D002068C16821F434
:101FE0000051C160204600F08BFD2068016921F49A
:101FF000904101612068416921F02A014161206816
:10200000C16841F40051C1602564202084F83D007E
:1020100084F83E00002070BD10B586B0044614213F
:102020006846FEF738FB1349206888421FD11248E2
:102030000021026842F400320260006800F40030BF
:1020400005900D481038026842F0010202600068F5
:1020500000F0010005900C2000900220CDE9010164
:102060000720CDE9031069460448FFF75DF806B084
:1020700010BD000000440040403802400000024013
:102080002DE9F843044690F83D001F4616460D46DC
:1020900020284CD1C5B1BEB194F83C00012846D0EF
:1020A000012084F83C004FF00008C4F84080212053
:1020B00084F83D00FFF732F9A6848146E684A068E3
:1020C000B0F5805F03D004E00120BDE8F88320690B
:1020D00028B12E465FF0000584F83C800EE0002613
:1020E000FAE78021204600F091FDA0B9AEB116F8C4
:1020F000010B21684860E08C401EE084E08C4B4678
:102100004FF0000200970028EBD14FF0400120462D
:1021100000F07CFD30B10320D7E735F8020BC0F3A7
:102120000800E6E7202084F83D000020CDE70220EB
:10213000CBE7FEE77FB500251A480095019502958B
:1021400017490395016001244FF480310461C0E90F
:102150000115047680F820501349C0E90A150226BB
:10216000C661C56080F830404461FEF750FD08B19B
:10217000FEF7A1FC07200095CDE90140694609481A
:10218000FEF79CFC08B1FEF796FCCDE900466946D7
:102190000448FEF793FC002801D0FEF78CFC7FBDBD
:1021A00000200140DC0000200100000F094808B5B4
:1021B000016841F4800101600068002200F48000A1
:1021C000009011463820FFF719F9BDE80840382083
:1021D000FFF706B930380240F0B587B014216846E1
:1021E000FEF759FA26480024016841F00401016015
:1021F000016801F004010591016841F0800101606E
:10220000016801F080010591016841F00101016060
:10221000016801F001010591016841F002010160CE
:102220000068184E00F00200059000222021304680
:10223000FFF76FF8144F002230213846FFF769F896
:102240004FF4005000904FF40410CDE901046946AA
:102250000E48FEF769FF202000900125CDE90154CA
:10226000694630460394FEF75FFF30200090CDE9C9
:102270000154694638460394FEF756FF07B0F0BD97
:1022800030380240000002400004024000080240D2
:10229000104810B50E4901604FF482714160002171
:1022A0008160C1604FF400720161C0E90512102223
:1022B000C0E90721416281620A21C162FFF770FB18
:1022C000002803D0BDE81040FEF7F5BB10BD0000AC
:1022D00000380040840100200C4810B50A49016014
:1022E0004FF4E1314160002181600C22C160C0E9FE
:1022F00004128161C161FFF75EFE002803D0BDE8D2
:102300001040FEF7D8BB10BD00440040DC010020A7
:10231000FEE7FEE708B5002000F008F950208DF830
:10232000000073208DF801006423022269460348EF
:10233000FFF789FC012000F0F9F808BD40000020FB
:102340000449054A0968B1FBF2F14143491EFDD237
:10235000704700003C000020C0C62D0070B5054647
:1023600000F00DF90446C0F380166EB115B1C4F348
:10237000420028704021072000F07CFAA00603D517
:102380002021072000F076FA304670BD0FB47CB5EE
:1023900014460D460646582209A95D48FEF749F93C
:1023A0005C4B0120DE60DD801C8100F0BFF8002066
:1023B00000F0B2F80520FEF7A5FE0821002000F08D
:1023C00059FA3F21012000F055FA0321022000F0C4
:1023D00051FA0321084600F04DFA0321042000F0D1
:1023E00049FA0221052000F045FA0021062000F0FC
:1023F00041FA0E21072000F03DFA0021082000F0EC
:1024000039FA0021092000F035FAE7248DF803405D
:102410008DF802408DF801408DF804408DF80040A1
:10242000052269460A2000F03DFAC2208DF803001B
:102430008DF802008DF801008DF804008DF8000081
:10244000052269460B2000F02DFAC3210C2000F074
:1024500011FAC4210D2000F00DFAC5210E2000F064
:1024600009FAC6210F2000F005FA8DF803408DF817
:1024700002408DF801408DF804408DF8004005229F
:102480006946102000F00EFA0021112000F0F2F948
:102490000021122000F0EEF90021132000F0EAF9EB
:1024A0000021142000F0E6F90021152000F0E2F9E7
:1024B0000021162000F0DEF9FFF72CFF00211C2080
:1024C00000F0D8F900211D2000F0D4F900F0C0FC84
:1024D0000F21084600F030F9032000F007F9012031
:1024E00000F0D6F8022000F0B8F800F029F820201B
:1024F00000F01AF900F0A6F84C2000F0C2F800F045
:1025000037F800F031F800F053F87CBC5DF814FBAC
:102510004000002000000020020003480189C0683C
:1025200000D00122FEF7F5BE0000002002000348A3
:10253000C188C06800D00122FEF7EBBE0000002079
:1025400010B51D2000F040F820F004011D2000F01F
:1025500091F900211C2000F08DF902490020C8707B
:1025600010BD000000000020FF21E22000F082B931
:10257000FF21E12000F07EB9602000F025B807209F
:1025800000F022B813B5052269460A2000F08AF946
:1025900005226946102000F085F904488178202939
:1025A00000D32021112000F065F91CBD000000209F
:1025B00010B5002000F008F820F00201BDE810403E
:1025C000002000F057B9000038B504460020FFF79E
:1025D000ADFF04F01F008DF800006423012269465E
:1025E0000848FFF730FB6423012206480DF1010182
:1025F000FFF77CFA9DF801400120FFF797FF204686
:1026000038BD000040000020F8B5044615460E46CF
:102610000020FFF78BFF04F01F008DF800006423FB
:10262000012269460648FFF70EFB64232A4631461D
:102630000348FFF75BFA0120FFF778FFF8BD0000C1
:10264000400000207021072000F014B908B13F219C
:1026500000E00021012000F00DB910B50446002073
:10266000FFF7B2FF20F00C011CB1012C06D041F0A5
:102670000C01BDE81040002000F0FCB841F008015A
:10268000F7E77F2800D37F200146052000F0F2B84D
:102690002DE9F04107464FF000080620FFF794FFB0
:1026A000114D00266E7120F02804022F0ED0012F4C
:1026B00010D06E712146062000F0DCF80620FFF7EE
:1026C00083FFA0420BD14FF0010809E06E7144F086
:1026D0002004EFE70120687144F00804EAE76E7116
:1026E0004046BDE8F08100000000002010B504461F
:1026F0000620FFF769FF20F00601032C0DD0022C05
:1027000005D0012C06D054B1042C06D007E041F0CE
:10271000040104E041F0020101E041F00601BDE8DE
:102720001040062000F0A6B8202800D32020014940
:10273000887070470000002000F00F0060F31F1148
:10274000042000F097B870B505460C460020FFF74E
:10275000E3FE0020FFF738FF20F0010040F0020107
:10276000002000F087F80120FFF7D6FE9620FFF743
:10277000E7FD2146284600F061F80120FFF7CCFE76
:102780000F20FFF7DDFDBDE870400020FFF7C4BE5D
:1027900010B50020FFF7C0FEFFF7EAFEBDE81040CD
:1027A000FFF7E2BE2DE9F04115460E460446FFF75D
:1027B000E6FE0746002020707021072000F05AF83E
:1027C000C7F340102070C7F300103070C7F38010BB
:1027D0002870BDE8F08100003EB50C460546FFF7C5
:1027E00031FF21462846FFF7AEFFFEF797FD04466E
:1027F000012201A90820FFF707FFFFF7C0FE10F034
:10280000300F04D1FEF78AFD001B0A28F0D30A4AD4
:1028100002A96846FFF7C6FF074C9DF800502078D4
:1028200010B1FFF7A9FE60700020FFF797FDFFF7DA
:102830009FFE28463EBD00000000002038B505463A
:102840000C460020FFF772FEA0208DF800006423E4
:10285000012269460648FFF7F6F964232246294615
:102860000348FFF7F0F90120FFF760FE38BD0000D4
:102870004000002038B505460C460020FFF756FE04
:1028800045F020008DF800008DF8014064230222FD
:1028900069460348FFF7D7F90120FFF747FE38BD27
:1028A00040000020F8B5044615460E460020FFF70C
:1028B0003DFE44F020008DF80000642301226946AB
:1028C0000648FFF7C0F964232A4631460348FFF75C
:1028D000BAF90120FFF72AFEF8BD000040000020F1
:1028E0007047F8B5044640684FF48273984221D18E
:1028F000A0684FF48065B0F5004F01D0A8420AD11E
:102900002068066826F0400606606068984211D18B
:10291000A068A8420ED000920B46002280212046DB
:1029200000F03AF8002804D0606D40F020006065A7
:102930000320F8BD00920B4600220121EFE70000C2
:1029400038B504461248134B0068B0FBF3F04FF45F
:102950007A73584300906068B0F5827F0DD10B46C2
:10296000009200228021204600F016F870B1606DC0
:1029700040F020006065032038BD009830B1401E53
:10298000009020688068C0430006F6D5002038BD5E
:102990003C00002000366E012DE9F8431E469146AA
:1029A00088460446089DFEF7B9FC401B351AFEF721
:1029B000B5FC074625480068C0F3CB30684338E0D3
:1029C000701C37D0FEF7AAFCC01BA84203D215B179
:1029D000009860B32CE02068416821F0E00141607C
:1029E0006068B0F5827F0BD1A068B0F5004F02D0CF
:1029F000B0F5806F04D12068016821F040010160CA
:102A0000A06AB0F5005F09D12068016821F4005187
:102A100001602068016841F400510160012084F8E0
:102A20005100002084F850000320BDE8F883002501
:102A3000401E00902068816838EA010004D000211F
:102A40004945BDD10020F0E70121F9E73C00002015
:102A50007047FEF769BC000030B593B0302168467E
:102A6000FDF719FE14210CA8FDF715FE1E480025E0
:102A7000016841F080510160006800F080501190C1
:102A80001A48016821F4404141F4004101600068A6
:102A9000022400F440401190012000904FF4A02047
:102AA00001906005CDE90640042008905420CDE94E
:102AB000090407200B906846FEF7BCFD08B172B60A
:102AC000FEE70CA90F2081E831004FF48050CDE9DA
:102AD0000F0502210CA8FEF7C3FC002801D072B636
:102AE000FEE713B030BD00004038024000700040E7
:102AF0000248016841F470010160704788ED00E010
:102B000070B5044600680169E26821F44051114340
:102B100001612169A068E2690843616911430843C2
:102B20002168CA6849F20C639A430243CA6020686C
:102B30004169A26921F44071114341613149206822
:102B4000884202D03049884202D1FEF733FD01E0CD
:102B5000FEF720FDE2690023192164253226B2F533
:102B6000004F626828D0A0FB0101930F9200FDF78F
:102B700089FB0146B0FBF5F06FF01802504301EB02
:102B8000800006EB0010B0FBF5F000F0F002B1FBA6
:102B9000F5F002EB0012B1FBF5F06FF018035843AB
:102BA00001EB800006EB0010B0FBF5F000F00F0029
:102BB00021681044886070BDA0FB010192185B4140
:102BC000FDF760FB0146B0FBF5F00201B1FBF5F04B
:102BD0006FF01803584301EB800006EBC000B0FB18
:102BE000F5F000F0F80002EB4002B1FBF5F05843BD
:102BF00001EB800006EBC000B0FBF5F000F0070031
:102C0000D6E7000000100140001401402DE9F0411A
:102C1000984617460E460446069D27E0681C25D0B8
:102C20002DB1FEF77BFBA0EB0800A8421ED920685F
:102C30000C3050E8001F21F4D07140E80012002A47
:102C4000F5D12068143050E8001F21F0010140E860
:102C50000012002AF5D1202084F83D0084F83E00BF
:102C6000002084F83C000320BDE8F0812068006863
:102C700036EA000004D00020B842CFD00020F3E7AD
:102C80000120F9E7FEE70907090E002804DB00F13F
:102C9000E02080F80014704700F00F0000F1E02001
:102CA00080F8141D704730380A2801D2012070477F
:102CB00000207047ACB0FEF73FFBFFF7CDFEFFF7FB
:102CC0008BFAFFF7E5FAFFF771FAFFF705FBFFF75D
:102CD00031FA02224E494F48FEF710F836224E498B
:102CE00015A8FDF7A6FC4C4CE08EADF88A00A06B51
:102CF0002390A08FADF89000E08FADF892001122E4
:102D000004F1400125A8FDF794FC94F851008DF8DA
:102D1000A500606D2A90542216A96846FDF789FC2B
:102D2000202210213D48159BFFF730FB26223C490D
:102D30000DA8FDF77EFC3A4CE08CADF85A00A06A75
:102D40001790A08DADF86000E08DADF86200206BAB
:102D50001990092204F134011AA8FDF76AFC94F8CD
:102D60003D008DF8710094F83E008DF87200206CE3
:102D70001D90342211A96846FDF75BFC0DF1340C5F
:102D80009CE80F0000F058F800F062F8FFF700FD33
:102D90001F4E361FD6E90401FFF7F4FB0020FFF7B2
:102DA00055FC3220FFF76DFC0620FFF7BDFC002725
:102DB00006F10804DFF86CB027704FF400594FF0AB
:102DC00001084FF4FA7A251F49465846FEF79CFA47
:102DD00058B92078012801D010B103E0277001E034
:102DE00084F800805046FEF78DF928886080688856
:102DF000A08006213068FFF7EFFC28B10A230F22DC
:102E000009A10748FFF73CF96420FEF77BF9DBE7EF
:102E10001C000020DC00002084010020000402408F
:102E2000DC0100200008024053756363657373661C
:102E3000756C6C79210D0A000FB4442210B502A9FB
:102E40000248FDF7F6FB10BC5DF814FB980000206B
:102E500010B5A0B0F4A104A8FDF78CFA04A8FDF702
:102E6000C9FB82B20A2304A9FC48FFF709F9002034
:102E7000FFF7AAFB01077AD5400701D5F8A100E0CA
:102E8000FEA104A8FDF776FA04A8FDF7B3FB82B211
:102E90000A2304A9F148FFF7F3F80120FFF794FB98
:102EA000C0F34014C0F30013C0F3C002C0F38001AC
:102EB0008DE81E0000F00102C0F34003F64904A8AB
:102EC000FDF758FA04A8FDF795FB82B20A2304A97E
:102ED000E248FFF7D5F80220FFF776FBC0F3401475
:102EE000C0F30013C0F3C002C0F380018DE81E00E0
:102EF00000F00102C0F34003E84904A8FDF73AFAE4
:102F000004A8FDF777FB82B20A2304A9D348FFF790
:102F1000B7F80320FFF758FB00F00302E0A104A874
:102F2000921CFDF727FA04A8FDF764FB82B20A237E
:102F300004A9CA48FFF7A4F80520FFF745FB00F0F5
:102F40007F02DEA104A8FDF715FA04A8FDF752FBE5
:102F500082B20A2304A9C148FFF792F80620FFF7BE
:102F600033FB0446000704D5D9A103E0FFE7DEA147
:102F700087E7E2A104A8FDF7FDF904A8FDF73AFBF5
:102F800082B20A2304A9B548FFF77AF8032010EAB1
:102F9000540006D0012806D0022806D0032806D007
:102FA00009E0DCA104E0E0A102E0E4A100E0E8A186
:102FB00004A8FDF7DFF904A8FDF71CFB82B20A2381
:102FC00004A9A648FFF75CF805221DA90A20FFF70F
:102FD0001BFB9DF876009DF874209DF875108DE818
:102FE00007009DF877309DF87820DEA104A8FDF752
:102FF000C1F904A8FDF7FEFA82B20A2304A9974892
:10300000FFF73EF805221DA90B20FFF7FDFA9DF8FA
:1030100076009DF874209DF875108DE807009DF8E6
:1030200077309DF87820DBA104A8FDF7A3F904A868
:10303000FDF7E0FA82B20A2304A98848FFF720F8D6
:1030400001221DA90C20FFF7DFFA9DF87420DDA1F5
:1030500004A8FDF78FF904A8FDF7CCFA82B20A2381
:1030600004A97E48FFF70CF801221DA90D20FFF7E7
:10307000CBFA9DF87420DDA104A8FDF77BF904A824
:10308000FDF7B8FA82B20A2304A97448FEF7F8FFE4
:1030900001221DA90E20FFF7B7FA9DF87420DDA1CB
:1030A00004A8FDF767F904A8FDF7A4FA82B20A2381
:1030B00004A96A48FEF7E4FF01221DA90F20FFF7CB
:1030C000A3FA9DF87420DDA104A8FDF753F904A824
:1030D000FDF790FA82B20A2304A96048FEF7D0FFF8
:1030E00005221DA91020FFF78FFA9DF876009DF8A4
:1030F00074209DF875108DE807009DF877309DF8D5
:103100007820D8A104A8FDF735F904A8FDF772FAD4
:1031100082B20A2304A95148FEF7B2FF1120FFF73B
:1031200053FA00F03F02DAA104A8FDF723F904A83E
:10313000FDF760FA82B20A2304A94848FEF7A0FF0F
:103140001220FFF741FA00F03F02D8A104A8FDF7D2
:1031500011F904A8FDF74EFA82B20A2304A93F48E8
:10316000FEF78EFF1320FFF72FFA00F03F02D6A1E3
:1031700004A8FDF7FFF804A8FDF73CFA82B20A2381
:1031800004A93648FEF77CFF1420FFF71DFA00F073
:103190003F02D4A104A8FDF7EDF804A8FDF72AFA30
:1031A00082B20A2304A92D48FEF76AFF1520FFF713
:1031B0000BFA00F03F02D2A104A8FDF7DBF804A847
:1031C000FDF718FA82B20A2304A92448FEF758FF33
:1031D0001620FFF7F9F900F03F02D0A104A8FDF78F
:1031E000C9F804A8FDF706FA82B20A2304A91B480D
:1031F000FEF746FF1C20FFF7E7F9C0F34014C0F3C9
:103200000013C0F3C002C0F380018DE81E0000F07F
:103210000102C0F34003C84904A8FDF7ABF804A8B5
:10322000FDF7E8F982B289E10D0A2A2A2A2A2A2A18
:103230002A2A2A2A2A2A2A2A2A2A2A2A2A2A2A2AEE
:103240002A2A2A2A2A2A2A2A2A2A2A2A2A2A2A2ADE
:103250002A2A2A2A2A2A2A2A0D0A0000980000204F
:103260004352433A0D0A0909456E61626C65642C4C
:103270002032204279746573200D0A004352433A8C
:103280000D0A0909456E61626C65642C203120428B
:10329000797465200D0A000084360008C8360008DD
:1032A00053455455505F41573A0D0A09092564208A
:1032B0006279746573200D0A0000000052465F4376
:1032C000483A0D0A09092564204348200D0A0000E8
:1032D0004461746120526174653A0D0A0909324DE6
:1032E000627073200D0A00004352433A0D0A090927
:1032F00044697361626C6564200D0A004461746105
:1033000020526174653A0D0A0909314D62707320CB
:103310000D0A000052465F5057523A0D0A09092D16
:1033200031386442200D0A0052465F5057523A0D20
:103330000A09092D31326442200D0A0052465F50BD
:1033400057523A0D0A09092D366442200D0A000031
:1033500052465F5057523A0D0A0909306442200D17
:103360000A00000052585F50697065302041646463
:1033700072733A0D0A0909253032582C253032581B
:103380002C253032582C253032582C2530325820FC
:10339000200D0A0052585F50697065312041646405
:1033A00072733A0D0A0909253032582C25303258EB
:1033B0002C253032582C253032582C2530325820CC
:1033C000200D0A0052585F506970653220416464D4
:1033D00072733A0D0A090978782C78782C78782C51
:1033E00078782C2530325820200D0A0052585F5032
:1033F000697065332041646472733A0D0A09097873
:10340000782C78782C78782C78782C2530325820C5
:10341000200D0A0052585F50697065342041646481
:1034200072733A0D0A090978782C78782C78782C00
:1034300078782C2530325820200D0A0052585F50E1
:10344000697065352041646472733A0D0A09097820
:10345000782C78782C78782C78782C253032582075
:10346000200D0A0054582041646472733A0D0A0911
:1034700009253032582C253032582C253032582C22
:10348000253032582C2530325820200D0A000000FB
:1034900052585F50575F50303A0D0A090925642091
:1034A0006279746573200D0A0000000052585F5065
:1034B000575F50313A0D0A09092564206279746515
:1034C00073200D0A0000000052585F50575F5032C1
:1034D0003A0D0A09092564206279746573200D0A82
:1034E0000000000052585F50575F50333A0D0A09F0
:1034F000092564206279746573200D0A00000000BC
:1035000052585F50575F50343A0D0A09092564201C
:103510006279746573200D0A0000000052585F50F4
:10352000575F50353A0D0A090925642062797465A0
:1035300073200D0A00000000143700080A2304A9B4
:103540001C48FEF79DFD1D20FFF73EF8044640078E
:1035500001D519A100E01EA104A8FCF70BFF04A8E7
:10356000FDF748F882B20A2304A91248FEF788FD45
:10357000A00701D51CA100E022A104A8FCF7FAFED7
:1035800004A8FDF737F882B20A2304A90948FEF718
:1035900077FDAFF26C3104A8FCF7ECFE04A8FDF750
:1035A00029F882B20A2304A90248FEF769FD20B077
:1035B00010BD000098000020454E5F44504C3A0D6D
:1035C0000A0909456E61626C6564200D0A000000FD
:1035D000454E5F44504C3A0D0A09094469736162D3
:1035E0006C6564200D0A0000454E5F41434B5F50FF
:1035F00041593A0D0A0909456E61626C6564200DF6
:103600000A000000454E5F41434B5F5041593A0D5F
:103610000A090944697361626C6564200D0A00003F
:103620004FF04070E1EE100A7047000610160006D9
:10363000101600000000000000000102030406074D
:103640000809000000000102030430313233343530
:1036500036373839414243444546403058003031CE
:1036600032333435363738396162636465664030E9
:1036700078000400000800000000000000020001C3
:1036800000001000454E41413A0D0A090950303AF8
:103690000925640D0A090950313A0925640D0A0902
:1036A0000950323A0925640D0A090950333A0925AF
:1036B000640D0A090950343A0925640D0A090950B4
:1036C000353A0925640D0A00454E5F52584144447D
:1036D000523A0D0A090950303A0925640D0A0909C0
:1036E00050313A0925640D0A090950323A09256416
:1036F0000D0A090950333A0925640D0A09095034A5
:103700003A0925640D0A090950353A0925640D0A5C
:103710000000000044594E50445F706970653A0DD6
:103720000A090950303A0925640D0A090950313A4D
:103730000925640D0A090950323A0925640D0A0960
:103740000950333A0925640D0A090950343A09250C
:10375000640D0A090950353A0925640D0A00000074
:10376000803700080000002040000000D001000861
:10377000C03700084000002040080000EC010008AD
:103780000000000000000000000000000000000039
:1037900000000000000000002000002000000000E9
:1037A00000000000000000001111111111000000C4
:1037B0000100000010000000000000000024F400E0
:040000050800019559
:00000001FF
